S0120000446F6F6D4D473234424C452E73333786
S31508000000DC0F0020CDA60208C9A60208B91B030802
S31508000010C9A60208C9A60208C9A60208C9A60208EE
S31508000020C9A60208C9A60208C9A60208C9A60208DE
S31508000030C9A60208C9A6020841A50208C9A6020857
S31508000040C9A60208C9A60208C9A60208C9A60208BE
S31508000050C9A60208C9A60208C9A60208C9A60208AE
S31508000060C9A60208C9A60208C9A60208C9A602089E
S31508000070C9A60208C9A60208C9A60208C9A602088E
S31508000080C9A60208C9A60208C9A60208C9A602087E
S31508000090C9A60208F1280308C9A60208C9A60208C3
S315080000A0C9A60208C9A60208C9A60208C9A602085E
S315080000B0C9A60208E90205082D0D0508E50C05087C
S315080000C0E10C0508E5040508290D0508E90C0508ED
S315080000D0010D0508ED0C05086D0D0508D10D05087F
S315080000E0C9A60208C9A60208C9A60208C9A602081E
S315080000F0C1EC0208C9A60208C9A60208C9A60208D0
S31508000100C9A60208C9A60208C9A60208C9A60208FD
S31508000110C9A60208C9A60208C9A60208C9A60208ED
S31508000120C9A60208C9A60208C9A60208C9A60208DD
S31508000130C9A60208C9A60208C9A60208C9A60208CD
S31508000140C9A60208C9A60208C9A60208A1F9020892
S3150800015009E80408C9A6020861C9040867C90408A9
S31508000160C9A60208C9A60208C9A60208C9A602089D
S3150800017010B5054C237833B9044B13B1044800E095
S3150800018000BF0123237010BD344300200000000087
S315080001905CE6070808B5034B1BB10349034800E0B2
S315080001A000BF08BD00000000384300205CE60708D1
S315080001B0A3F5803A704700BF174B002B08BF134BB7
S315080001C09D46FFF7F5FF00218B460F461348144A54
S315080001D0121A51F0D8F80E4B002B00D098470D4B49
S315080001E0002B00D098470020002104000D000D4880
S315080001F0002802D00C4800E000BF51F069F8200042
S31508000200290033F02BF851F04FF800BF0000080022
S315080002100000000000000000DC0F0020344300202E
S31508000220E0FF03200000000000000000104A38B577
S31508000230136804460133136080EAE07281EAE173C9
S31508000240A2EBE072A3EBE173B3EB923F05D8414012
S315080002506FF0004080EAE17038BDC5172D040A46E4
S31508000260CB17000445EA144150F03EFEF4E700BF00
S31508000270544300201F4B70B51B68D3E9041251EA9A
S31508000280020006D0187B20F0080018736FF00040B3
S31508000290986498699D6A0144D8699C6B024405EB89
S315080002A0D570996101EB6001A142DA614FEA6006F7
S315080002B014DDA41B9C61DC6AD86B04EBD47102EBD9
S315080002C0610282424FEA61060EDD801BD8619A6997
S315080002D02A441A62DA6922445A6270BD186B81424E
S315080002E0BCBF801B9861E6E7596B8A42BCBF891B75
S315080002F0D961ECE778430020164BF7B51C684FF038
S31508000300A070A26AE36A616DA769E66902EBD27218
S3150800031003EBD37307EB620706EB6306019120F044
S3150800032007FF01990546A0624FF4500020F000FF30
S3150800033005EBD57200EBD073A7EB6202A6EB63035D
S31508000340E06215441844A261E3612562606203B065
S31508000350F0BD00BF784300202DE9F74F0F4601682E
S315080003604FEA231AA1EB2319144BD40C1B68064633
S3150800037053F824B04846594620F0DAFE0C9D3A68F0
S315080003802D11A2EB05080E4A019052F8241040469A
S31508000390009120F0CDFE019B00991C1A484620F0DA
S315080003A0C7FE59460544404620F0C2FE544405445B
S315080003B03D60346003B0BDE8F08F00BFE83406083E
S315080003C0EC3406088D4B2DE9F04F1B6847685A6ACE
S315080003D0F7298A4608BF4FF0000A974289B07ADCA7
S315080003E0DC69A742B4BF04240024D0F80CB05A45EF
S315080003F073DBD9698B45B4BF042100210C4240F058
S31508000400CC80D0F800C0D3F81890CC4567DA44F011
S3150800041001048268914568DD41F001010C400392B0
S3150800042040F0BB80196DACEB0900CDE9011320F053
S315080004307FFE029B0199DB694FEA2048F81A02936E
S31508000440CDF8108020F074FE039A0014C0F1D0078E
S315080004500199A2EB0900059720F06AFEDDE9011370
S315080004604FEA2049ABEB0300CDF8189020F060FE68
S315080004700014C0F1D002002F07923CDBCF2FCCBF6F
S3150800048004230023B8F1000F37DA43F00103002AEA
S3150800049039DBD02AA8BF0424B9F1000F35DA44F0B5
S315080004A0010413EA040078D1844640F23F1E53EA59
S315080004B0040130D1BCF1000F00D0059708B1CDE991
S315080004C00692BCF1000F01D0CDF81080514604A861
S315080004D027F010FA61E0082487E708218EE71A6AF0
S315080004E09445C8BF44F0020493E7186A8242C8BF1D
S315080004F041F0020192E70823C4E7B8F5A07FA8BF38
S3150800050043F00203C3E70824C6E7B9F5A07FA8BFEE
S3150800051044F00204C5E7002B14BF1946214611F022
S31508000520080F0CD0A9EB08057D43BE1A95FBF6F516
S31508000530002645448B4242D03246A9464BE011F08C
S31508000540040F0AD0A7F1D006A9EB08057543BE1A11
S3150800055095FBF6F5CF264544ECE711F0020B1FD0C4
S31508000560AEEB0805D61B6E43A9EB080596FBF5F618
S3150800057040F23F153E448B4229D1002E1DDBD02E7A
S31508000580B4BF00230423002D1BDA43F00103A84659
S3150800059037464FF0010C234289D009B0BDE8F08FE9
S315080005A011F0010FE7D0BE1A06FB08F6A9EB0805FD
S315080005B096FBF5F65D463E44DDE70823E3E70023B0
S315080005C0E1E7B5F5A07FE2DB43F00203DFE7002EA3
S315080005D03246A94609DBD02EB4BF00240424002DD8
S315080005E005DA44F001040120D5E70824F7E7B5F554
S315080005F0A07FF8DB44F00204F5E700BF784300204B
S315080006002DE9F0470546884617464FF000091E466D
S315080006101E4B1F4C1B6886B01B7B04F1700A5B07D8
S3150800062041BF1C4B1B68C3F18043ED182368029336
S31508000630636803933DB100232A46CDF8009003A9C9
S3150800064002A8FFF789FE029B3B440293039B3344AF
S315080006500393A3680493E36805933DB100232A46F0
S31508000660CDF8009005A904A8FFF776FE049B41463D
S315080006703B440493059B02A8334410340593FFF7C3
S31508000680A1FE5445D2D106B0BDE8F08778430020D4
S31508000690B8250508F082002010B5074833F054FC49
S315080006A00022064C064823681A7325F0B5FC012279
S315080006B0236883F85A2010BD402505087843002092
S315080006C038260508F7B55D4F3B6893F85A300BB9DD
S315080006D0FFF7E2FF5A4833F037FC00223B6893F8ED
S315080006E0581083F85A2093F82A25914205D193F891
S315080006F0592093F829359A424AD0524833F024FCB7
S315080007006FF000433C68C4E90C330233C4E90E3386
S315080007100023B4F9F066B342226BA16B656B73DBF9
S31508000720E36B12111B1109112D112263E363A163F7
S315080007306563891A4FF0A0705D1BFFF777FD2946A0
S3150800074006464FF45000FFF771FD3F4A864213688C
S31508000750A8BF0646013313604FF4D0034BF233317A
S31508000760636430462664FFF761FDB0F5D00FD4BF49
S31508000770014631464FF480302165FFF757FD94F85E
S315080007802A35606584F8583094F8293584F8593044
S315080007902E4833F0D9FB3C684FF0A070237B616D7F
S315080007A043F0010323736FF00043A3640023C4E9F5
S315080007B00433019120F0BCFC0199A06205464FF470
S315080007C0500020F0B5FCB82294F84635E06202FBEA
S315080007D00343D3F82C3205EBD5755A6900EBD07074
S315080007E09B696D104010C0EB2310C5EB2215E06124
S315080007F0A561FFF73FFD164825F00EFC154803B026
S31508000800BDE8F04033F0A0BBD4F8DC0600EBC30C1F
S3150800081050F83300904207DA2063DCF80420AA4235
S3150800082006DA6263013376E78842C8BFA063F4E755
S31508000830E16B8A42C8BFE263F4E700BF7843002051
S315080008404C25050859250508544300206A2505083E
S31508000850282605087F25050810B55B4A034614684F
S315080008600078227B12F001010BD1002840F0AA8003
S315080008705A68564B1B689A4202D1FFF723FF01209C
S3150800088010BD002875D15968514B1B688B4208D199
S315080008901207F5D44FF48020616D20F049FC2061E1
S315080008A0EDE74C4B1B688B4208D11307E8D44FF48D
S315080008B08020616D20F03CFC4042F0E7464B1B6807
S315080008C08B4208D11107DBD44FF48020616D20F0EC
S315080008D02FFC6061D3E7414B1B688B4208D1120796
S315080008E0CED44FF48020616D20F022FC4042F0E720
S315080008F0364B1B688B4208D1930702D5FFF7CCFE0F
S31508000900BDE742F00E002073B9E7354B1B688B42F2
S315080009101BD13448B4F832350068034113F001009E
S3150800092013D06FF00043B82182F00802A3642E4B5F
S3150800093012F0080F22732D4A08BF1A4694F8463556
S3150800094001FB0344C4F8AC229AE7294B1B688B4287
S3150800095006D14FF6FA23E36503F6242323668EE7CA
S31508000960244B1B688B422DD1234BE3654FF6FA23A4
S31508000970F4E7012826D116495B680968994204D12B
S3150800098012F008001ED120617AE7124909689942D7
S31508000990F6D011490968994204D112F0080011D11C
S315080009A060616DE70D4909689942F6D0104A1268E8
S315080009B09A4203D00F4A12689A4203D14FF4803301
S315080009C0C4E9173300205BE778430020204905086F
S315080009D0304905082C4905083449050824490508FD
S315080009E02849050858490508A82505089925050828
S315080009F03C490508384905081E0501002DE9F74F49
S31508000A00374E3468237BDA0766D51B073BD5B822F1
S31508000A1094F8463502FB0343D3F82C32D3E905870D
S31508000A20A36C434502D1E36C9F422CD0236D4FEA59
S31508000A3028101946019320F07BFBDFF8A8A0D4F80C
S31508000A4054B000EA0A00594620F072FBA56A019BD9
S31508000A5005EBD572A0EB62091946C4F8189038114F
S31508000A6020F066FB594600EA0A0020F061FBE36ABB
S31508000A70C4E9128703EBD372A0EB62004D4403442A
S31508000A80E06125626362236EB3F5803F1AD0E16D9B
S31508000A90206D20F04DFB0146054620654FF4803059
S31508000AA0FFF7C4FB216C60658D4206DA4FF480308F
S31508000AB02165FFF7BBFB606502E0616C8D42F5DCE2
S31508000AC0FFF71AFC33681A690AB95B6923B103B0E0
S31508000AD0BDE8F04FFFF7CEBB03B0BDE8F08F00BF0F
S31508000AE0784300200000FFFF2DE9F04FB64D89B08E
S31508000AF02B68197BCC0740F1E78111F0020107D179
S31508000B00F7234FF4A07200930846D02326F0B8FEC8
S31508000B1029680B7BD80632D58A69D1F83437D31AB7
S31508000B20C3F31204002C4BD05B42C3F3120358BF25
S31508000B305C42C4F5002414448E6ACB6A1644CA691A
S31508000B40134405920793A6423CDC2968CA69D1F882
S31508000B503837D31AC3F31204002C3CD05B42C3F3D4
S31508000B60120358BF5C42C4F500241444CD6A8B6A4C
S31508000B7015448A69134404920693A5422DDC00277E
S31508000B80DFF84482D8F80030B3F9FA2697422DDB0D
S31508000B9093F83025002A40F06D81B82193F8462550
S31508000BA001FB0233D3F82C12D1E90523488CD02156
S31508000BB01B111211000409B0BDE8F04FFFF720BD64
S31508000BC01446B9E7682104A804940694FFF7FAFBCB
S31508000BD004F50024B7E71446C8E7682104A8059475
S31508000BE00794FFF7EFFB04F50024C6E738224FF613
S31508000BF0FF7402FB07F9D3F8FC16D3F8E46601EB99
S31508000C000902D08B51F80910A04218BF0C244FEAEC
S31508000C1021110491516808BF00254FEA2111059159
S31508000C2091684FEA21110691D1684FEA211107917F
S31508000C30D3F8101718BF04FB00104FF00C0418BFA8
S31508000C40B0F90A50908B18BF06EB051504FB001186
S31508000C501469B1F90AB0518E2246002CB8BF04F1C6
S31508000C601F020291D3F80417521151F82220039259
S31508000C701A7B520725D54FF0B80A93F8462504A8DB
S31508000C800AFB0233D3F82C325A8C99691204009164
S31508000C905B69C2F1804205A9FFF75EFBD8F8003010
S31508000CA006A893F846250AFB0233D3F82C325A8C49
S31508000CB09969120400915B69C2F1804207A9FFF79E
S31508000CC04BFB0123D8F800204FEA671CD2F8080727
S31508000CD007F01F0150F82C0003FA01F1014200F059
S31508000CE0B780D2F8FC164944098E080669D48906E5
S31508000CF006EB0B1600F1ED80614201F01F0104F0CE
S31508000D001F0458BF4C4203FA04F4039B02991C4281
S31508000D1014BF012300234B43A3F56051B1F5806F3F
S31508000D2013D211F4E07FC1F3821369D0072B67D081
S31508000D300322013BB3FBF2F202EB42029B1A022B9F
S31508000D4044D0012B39D0AF2138E0222B1AD8192BE1
S31508000D5030D9A3F11A0108291CD801A050F821F0AE
S31508000D60BB0D0008CD0D0008470D0008950D0008BD
S31508000D70950D0008950D0008BB0D0008470D0008E5
S31508000D80CD0D0008872B11D8852BDCD8632B14D002
S31508000D90852B12D0002D00F09F80272B04D0612BC5
S31508000DA002D07D3B012B15D8772107E0A3F18801F6
S31508000DB001290BD9002DF4D18EE0CC2104A8FFF728
S31508000DC001FB0137DEE600BF78430020E721F5E79F
S31508000DD01721F3E7D2F8E826B5F90E30190102EB28
S31508000DE00313515EB3F90230994209D0B6F90E30B1
S31508000DF0190102EB0313B3F90230525E9A4201D18C
S31508000E00D021DBE730461AF0F5FF00286AD12846DC
S31508000E101AF0F0FF002865D1D8F80030D3F8E816A4
S31508000E20B5F90E30180101EB0312B6F90E30085E5B
S31508000E301C0101EB0313095F884201D03721BDE786
S31508000E40B2F90220B3F902309A42BAD0D721B5E7EF
S31508000E50B82192F8463501FB0323B3F96232002B19
S31508000E60AFD0D2F8FC369944B9F830301B06A8D46E
S31508000E706821A3E70024B8251B4ED8F8003093F85C
S31508000E802C2552B193F843253AB993F8462505FB24
S31508000E9004F112FB05F2914213D11A1992F83F2573
S31508000EA07AB105FB0433D3F82C22B3F95E32508CA1
S31508000EB0000463B9A15DD2E905231B111211FFF7DE
S31508000EC09FFB0134042CD8D109B0BDE8F08FF62178
S31508000ED0F1E7002D7FF47CAF30461AF08BFF00282F
S31508000EE03FF476AFFC2169E7482605080022074B40
S31508000EF01B6883F83F25A3F8402583F8422593F815
S31508000F0046251344012283F83F257047784300207D
S31508000F1070B503F0C7F80826154D2B68D3F8684155
S31508000F20C3F86801041B04B970BD03F0EFF828681C
S31508000F30013CD0F86431D0F870219A1A062AF3DCFD
S31508000F40594201F0070190F8462503F0070358BFF8
S31508000F504B420C3316FB023300EBC300043001F09E
S31508000F60ABFC2A68D2F864310133C2F86431DAE797
S31508000F70784300202DE9F04F00256D4B6D4C5D60E0
S31508000F80B7B02EF06FFDFFF7C3FF236893F830253F
S31508000F90002A00F0C88093F88721002A71D04FF004
S31508000FA00109D3F86471CA46B8462368294601354B
S31508000FB02B4493F83F354BB30AFA05F343EA09097C
S31508000FC001A85FFA89F930F0BDFC002854D1029ACD
S31508000FD00DF1040C13464FEAC50E0399981A81427F
S31508000FE0D4F800B006DDDBF870010CF1080C073008
S31508000FF083422FDDBA4203DA17EA220738BF1746BB
S31508001000434503DA18EA230838BF9846032DCCD19E
S315080010102368494AC3F86C8113684345474B05D191
S315080010201968B94202D1B9F1010F10D00025C2F8EA
S3150800103000801F602368284601352B4493F83F3506
S315080010401BB13A46414630F04FFB032DF2D137B07B
S31508001050BDE8F08F584200F0070003F0070158BFBB
S3150800106041420EEB01060BEBC6066436DCE90101CC
S31508001070013386E80300B0E72368D3F86C71B846F5
S31508001080C4E701A830F022FC68B12368D3F86401EC
S31508001090D3F86C31C01A20EAE0700828A8BF0820E7
S315080010A030F09EFBD3E7DDE9023213442268D2F81A
S315080010B06451AB420ADD92F827654EB930F0FAFD65
S315080010C0236883F8306500F0EDF92B4623EAE370D0
S315080010D0266896F82725C6F86C01002AD5D10DF1A1
S315080010E0100C00251CF8017B05ABFF0003EB020E74
S315080010F0039B9D4203DB4032C02AF2D1C5E7029B1F
S315080011002B44594201F0070103F0070358BF4B422D
S315080011103B4406EBC3030EEBC501643303C9013533
S3150800112083E80300E4E737B0BDE8F04F30F054BD7C
S31508001130001000E078430020DC0F0020E00F0020BC
S31508001140054B1B6893F88A2122B193F885310BB9B0
S31508001150FFF710BF704700BF784300202DE9F0471E
S31508001160304BADF5107DC3F800D02F4B10AA1A608E
S3150800117002F098FF06468146DFF8B4802B4FD8F870
S315080011800050DFF8B0A0451BC8F80000FFF7D8FFED
S315080011903B6893F83015D3F8702149B3D3F86C41FE
S315080011A0A41A25B902F07EFFC8F80000851BA542DF
S315080011B003DB022CC8BF04F1FF34AC42A8BF2C469F
S315080011C0002C2ADC02F06EFFA0EB0903012B044673
S315080011D005D99AF8003081460BB92FF083FFA41B76
S315080011E0042CD3D904F006F80DF5107DBDE8F08778
S315080011F0D3F86441A41AE3E73B6893F886310BB148
S3150800120000F0E0F803F0F6FF02F0BCFB3A68013C98
S31508001210D2F870310133C2F87031002CECD1FFF7E7
S315080012208FFFE1E7247300202C7300207843002009
S3150800123050430020862B050838B504461D2024F0A7
S315080012406DFB064B20461D6840F21A43A5F874311B
S3150800125026F056FFA5F8760138BD00BF7843002072
S3150800126070B5ADF5207D02F01DFF134C461E68468D
S3150800127001F0D0F994F80B3CC3F1010384F80B3C58
S3150800128002F010FF0546801BFAD0694601F0F2F914
S31508001290C6B2F02002F0D8FF94F80E3C002BFBD122
S315080012A094F80B3CC3F1010384F80B3C16B10DF519
S315080012B0207D70BD2E46E3E714E303202DE9F843AD
S315080012C080460E460025134FDFF85490AE4201D8EB
S315080012D0BDE8F883741BB4F5807F28BF4FF480748B
S315080012E049462246386831F041FE0B4A536B03F0F3
S315080012F00303032BFAD13968084B01F0030119449B
S3150800130008EB0500224650F017F83B6825442344AD
S315080013103B60DBE728EF03200000045044EF03207E
S315080013203CEF032010B50446422024F0F7FA204685
S3150800133026F0E6FE024B1B68A3F8760110BD00BF37
S315080013407843002038B5124D04462B68D3F870311F
S31508001350022B1CDD03F0F6FDC8B92B6893F8273578
S3150800136023B12046BDE8384001F060BB204603F0B3
S3150800137081F960B9204602F033FE40B9204624F0D0
S315080013804BFE20B92046FFF767FA0028E9D038BD9A
S31508001390784300200122024B1B6883F88621704798
S315080013A078430020064B1A68B2F87431013B1BB229
S315080013B0002BA2F8743101DAFFF7ECBF704700BFC3
S315080013C078430020B8221B4B1B481B6893F8461528
S315080013D002FB0131002281F83022A3F83C2583F86C
S315080013E0862140F28112A3F874214FF44072A3F8C3
S315080013F0262593F8302593F88B112AB193F84325BF
S3150800140012B983F884210BE093F884210132D2B211
S3150800141083F8842101EB820250F83220002AF0D0AA
S3150800142093F8843101EB830300EBC30250F83330A1
S315080014305068184778430020442B050810B5164B0A
S31508001440ADF5107DC3F800D0144C154B10AA1A60E0
S3150800145002F05CFE2068D0F8643190F846155A42CE
S3150800146002F0070203F0070358BF53420C3303EB9D
S31508001470C10300EBC300043001F01EFA236893F899
S3150800148086310BB1FFF79EFF03F0B4FE02F07AFA3D
S315080014900DF5107D10BD00BF247300207843002091
S315080014A02C73002008B5094832F04EFD0022084B7F
S315080014B008481B6883F82625FF2283F88421FFF74E
S315080014C069FFBDE8084032F03FBD00BF2427050884
S315080014D078430020322705082DE98048854D864C3B
S315080014E02B6889B0002B00F0C180844B1B68002B49
S315080014F000F0BC80DFF828B223F07E43042104A85C
S31508001500CBF80030FFF7DAFE2E680C2126F07E4372
S3150800151005A8CBF800302768FFF7D0FE04227849E3
S3150800152005A84FF0C2FF0546002840F0BF80DDF849
S3150800153018A074484FEA0A19514632F005FD2A46A2
S3150800154001214846704B28F097FE8046079B49467E
S315080015501E4426F07E46CBF80060FFF7AFFE2E4607
S315080015600AF1FF3308EB0901AB46A946AA4643F23E
S315080015704C1C0393039B013317D1404628F0FCFE0D
S31508001580042387F88B310023BBF11D0F87F84535F7
S3150800159040F39580012E4FF00203D4BF00260126A2
S315080015A087F88B3187F8456555E051F8080C574B95
S315080015B000F0FF1E9E45A1F110021AD111F804ECA5
S315080015C0BEF1000F15D111F8071C342906D10AF10E
S315080015D0010A039B1146013B0393CBE7332901D14B
S315080015E00135F6E73229FBD03129F2D109F1010993
S315080015F0EFE744F24D13B2F808E09E4516D111F80C
S3150800160006ECBEF1500F11D111F803ECBEF1000F34
S315080016100CD111F8050C0BF1010B3328D9D111F8AF
S31508001620041C31390129D4D80136D2E7384B9842FF
S3150800163028D190896045CCD111F8021C0029C8D15F
S315080016400223226887F88B3182F88C3182F88B3135
S31508001650404628F091FE236893F88B21022A3DD054
S3150800166001D9032A3CD1002283F88C21236893F8F8
S315080016708B21032A00F2B181DFE812F05400A3019E
S31508001680A501B101234B9842A3D190896045A0D109
S3150800169011F8021C00299CD102220321236887F82D
S315080016A08B2183F88C1183F88B21D1E700261A4801
S315080016B032F04AFCB346B1463546B24660E7BAF15F
S315080016C0080F03DD032387F88B31C4E7112D01DDED
S315080016D00123F8E7B9F1080FBDDDF4E70122C3E7F6
S315080016E004218A4283F88C11C0D10C4832F02CFCB4
S315080016F0FEE700BFE40F002078430020E80F002033
S31508001700CF270508D4270508E527050845004D0015
S315080017104D5552415746414C0028050820280508D2
S3150800172028EF0320C04DC149C14832F00DFC2946B7
S31508001730C04832F009FCC04832F006FCBF4832F017
S3150800174003FCBF4832F000FCBE4832F0FDFBBE4841
S3150800175032F0FAFBBD4832F0F7FBBD4832F0F4FB35
S3150800176001F082FEBB4832F0EFFBFFF7BFFBBA4839
S3150800177032F0EAFB26F01AFD26F0BCFDB74832F037
S31508001780E3FB23F08FFCB64832F0DEFB04F0E4F905
S31508001790B44832F0D9FB26F053FFB34832F0D4FBF5
S315080017A019F0F4FCB14832F0CFFB02F093FCB048D4
S315080017B032F0CAFB2368002603F5005393F8311963
S315080017C093F8300923F082FFAA4832F0BDFB02F0F5
S315080017D0E5FAA94832F0B8FB25F058F8A74832F0E0
S315080017E0B3FB01F0AFFDFF21236803F5005282F831
S315080017F0331983F88961FFF755FEA14826F080FC66
S31508001800256800B22880013007D19E4826F078FC6A
S3150800181000B2421C14BF28802E809B4826F070FC1C
S3150800182000B26880013004BF05F50053B3F82439C7
S31508001830B5F9001008BF6B80B5F90220934832F05D
S3150800184083FB23680022B3F90250B3F90030012163
S31508001850ED1AED008E4B284628F00EFD0646236845
S31508001860DFF87882B3F900702368B3F902309F4233
S31508001870C0F2B9802946874F874832F065FB0022B7
S31508001880294601233046D7F8008026F02FFAC8F8F3
S315080018904000304628F070FD26F038FB7F4A386055
S315080018A07F49506A536A1B1A8B42FBD900220121D1
S315080018B023687C4883F8892183F88A1132F0FEF977
S315080018C0794F07F514380023784A1360784A13606D
S315080018D0784A136072B64FF4963298F80B3C02FBBE
S315080018E0037303F5843343F804D99D4662B62FF093
S315080018F0F9FB236893F88531002B00F0F180FFF798
S315080019009DFD2368D3F870210132C3F87021D3F8FE
S3150800191064210132C3F8642172B64FF4963298F8FE
S315080019200B3C02FB037303F58433D3F800D062B68D
S31508001930B821236893F8472501FB0233D3F82C0214
S3150800194008B124F0E7F902F063FC002800F03281C0
S31508001950236893F827A593F98291CA4501D000F028
S3150800196037FE4FF4963198F80B3C226801FB037357
S3150800197002F5005103F20443C1F8D8384E494F4DD9
S315080019800B60CF2300212B804D4B198092F8273509
S31508001990002B00F0BF80EF2392F983012B8008B952
S315080019A025F06CFF226892F82735022B00F09B8001
S315080019B0032B00F09B80012B01D128F089FAF02532
S315080019C0CFE0404DAFE693F88C31022B09D03E4D5F
S315080019D03E4A032B08BF1546A5E63D4DA3E63D4DF9
S315080019E0A1E63D4D9FE6384626F080FC20F07E4075
S315080019F00821C8F8000005A8FFF760FC2368BDF8B1
S31508001A001610B3F90030FB1A06EBC3025180BDF875
S31508001A10181001379180BDF81A10D180BDF814202E
S31508001A2026F8332020E700BF762705084028050852
S31508001A304C280508602805086E2805088D2805081D
S31508001A409D280508B2280508CA280508E0280508BB
S31508001A502D29050875290508862905089F290508D9
S31508001A60BE290508D8290508F3290508122A0508F4
S31508001A70322A05084E2A0508692A0508852A05080E
S31508001A80A92A0508AE2A0508B42A0508BA2A0508A7
S31508001A90DA2A050840830020022B05080080045036
S31508001AA03F420F0000000A501493012054430020BF
S31508001AB03083002058430020A08000209C8000200E
S31508001AC09A800020662705089D270508B32705087C
S31508001AD048270508542705088527050828EF032001
S31508001AE0FFF73CFB18E700F065FC68E7B2F97631CA
S31508001AF0002B3FF464AF92F8D125002A0CBF0422CC
S31508001B000C2201920622009200221146104625F068
S31508001B108DFE54E7D2F87011D2F8183599423FF481
S31508001B204EAF02F0D7F92068037B03F00303012BBD
S31508001B3008D0B82290F8473502FB030000F50B7071
S31508001B4021F076FE23681B7BDB0701D5FEF7CCFF69
S31508001B5002F0D0F9EF23002101202B8024F0CEFBE0
S31508001B600546236893F9272583F8822183F883217C
S31508001B7093F83C35ABB1264826F0C2FA23F0EEFAC4
S31508001B800646234826F0BCFAC6F5A0720346042189
S31508001B9002EBD27006224010CDE90021002225F082
S31508001BA045FE03F039FFFFF7B3F9CA452AD128469F
S31508001BB002F04AFB2268D2F87C310133C2F87C3144
S31508001BC002F068FA22681349D2F87831C31A8B42B0
S31508001BD07FF679AED2F87C110F4D694307EE901A5D
S31508001BE0B8EE677A07EE903AF8EE677AC7EE276A94
S31508001BF0FDEEE66A16EE903AA2F880310023C2E9B5
S31508001C005E0360E600F0ECFCFFF72AFBD2E700BFB4
S31508001C10302B05083F420F0080969800094B1B6839
S31508001C2093F8AF1141B903F5005292F8270983F8E2
S31508001C30AF0120B182F827199FED030A7047B0EE6D
S31508001C40080A7047784300200AD7233C4FF40072ED
S31508001C5010B5544C2368A3F826251A7B03F50051C2
S31508001C6022F001021A73002283F8AF2181F827298E
S31508001C7093F88B310121022B26D002D9032B40F091
S31508001C8088801F2023F022FE236893F82925013A2D
S31508001C90032A28D8DFE802F002090E13424AC3F8DD
S31508001CA0A821424AC3F8A4211DE0414AC3F8A82145
S31508001CB0404AF7E7404AC3F8A821404AF2E7404AB3
S31508001CC0C3F8A8213F4AEDE7412023F0FFFD23682A
S31508001CD093F82A25142A36D00CD80B2A27D00F2A8F
S31508001CE049D0062A14D00022236883F8AE21A3F827
S31508001CF0AC2110BD1E2A32D01F2AF4D193F88C11BC
S31508001D00314A0229C3F8A82141D0304A304808E0B0
S31508001D1093F88C112F4A0229C3F8A82105D02E4A18
S31508001D202E48032918BF0246BCE72D4ABAE793F89E
S31508001D308C112C4A0229C3F8A82102D02A4A2B481A
S31508001D40EFE72B4AAEE793F88C112A4A0229C3F823
S31508001D50A82102D0284A2948E3E7294AA2E793F8A6
S31508001D608C11284A0229C3F8A82102D0264A2748F6
S31508001D70D7E7274A96E793F88C11264A0229C3F82B
S31508001D80A82102D0244A2548CBE7254A8AE7254ACE
S31508001D9088E7412023F09AFD234A2368C3F8A8213F
S31508001DA00E4A7FE778430020334005083C40050883
S31508001DB0664105086E410508C2420508CA4205087B
S31508001DC0F943050801440508824505086D3F0508DD
S31508001DD0D83F05085A4505080D2D0508BF2E0508E4
S31508001DE0872B050862450508673105082932050865
S31508001DF0303005086A450508E73405083036050811
S31508001E00B133050872450508EB380508B83A0508E0
S31508001E10693705087A450508C63C0508663D05087C
S31508001E20183C05080B3E05088A4505081449154B54
S31508001E30B1F94200144910B41B6800EB400401EBE9
S31508001E408404C3F898410C24FF2204FB0011B1F95D
S31508001E50021083F88221C3F894110022022183F824
S31508001E60B22183F8AE1183F8B12101213F20C3E9DD
S31508001E7067225DF8044BC3F8902123F027BD00BF05
S31508001E80F8590508784300208C7F0508F8B5A64D53
S31508001E902A68D2F89431013B002BC2F8943100F33A
S31508001EA0A980D2F89801A14CB0F90230013303D0C9
S31508001EB0B0F90810002977D10020D2F890319C4E4D
S31508001EC0591C56F8313082F8B201834218BF0B46C6
S31508001ED0C2F890313C2206EBC303964F1B7902FBEE
S31508001EE00373B3F9081009B123F0FCFE3C212A68F4
S31508001EF0D2F8903106EBC306337901FB0377B7F9BD
S31508001F00063003EB430304EB8303C2F8983100233E
S31508001F10C2F89C312A68D2F89C310C2B40F0FB8021
S31508001F200123D2F8901182F8B131814BD2F8A06121
S31508001F3003EBC10318793C237E4903FB0013002EEB
S31508001F4000F0E680B3F9143003EB430304EB830394
S31508001F5086F00107A342C2F89831C2F8A0710ED1E3
S31508001F603C2303FB0011012E14BFB1F91430B1F95B
S31508001F70163003EB430304EB8303C2F898313C2085
S31508001F80D2F890116A4BD2F8982103EBC10319795C
S31508001F90684B00FB0133B3F9063003EB430304EB4C
S31508001FA083039A421CD103E004F5E766B04222D1C6
S31508001FB000233C202A68D2F8901182F8B131C2F881
S31508001FC09C315B4B03EBC10319795A4B00FB013378
S31508001FD0B3F9063003EB430304EB8304C2F89841D4
S31508001FE02B68D3F89821B2F90220511C08BF0F229A
S31508001FF0C3F89421F8BD01EB410004EB8000C2F858
S315080020009801D2F89C01B1F5D27F00F10100C2F81F
S315080020109C012CDAB1F5D07F74DCB1F5807F66D0EF
S3150800202008DCB92968D0DA296CD09A297FF472AF0E
S3150800203004215DE0B1F5A97F60D005DCB1F5A87F84
S315080020407FF468AF382153E0B1F5AA7F58D06FF412
S31508002050BC70014489B206293FF65CAF012303FA36
S3150800206001F111F0490F3FF455AF102140E040F25D
S31508002070692291421FDCB1F51A7F43DAB1F5F37F85
S3150800208042D005DCB1F5E37F7FF444AF37212FE07A
S3150800209040F24E22914228D03FF73CAF40F21A2236
S315080020A09142E2D040F237229142DED040F2F91254
S315080020B09142DAD02EE740F2AF2291420AD0B1F52A
S315080020C02C7F09DAB1F5227F20D040F2AD22914269
S315080020D07FF420AF0E210BE040F2B1229142F9D0F5
S315080020E040F2C62291427FF415AF332100E0362133
S315080020F0002023F0F7FD0DE70121F9E73521F7E781
S315080021006B21F5E70221F3E73421F1E70821EFE730
S31508002110B3F9163018E792F8B11100293FF460AF09
S31508002120182B3FF445AF2AE7784300208C7F050833
S3150800213084460508F859050810B5344C2DED028B70
S3150800214027F058FE2368B3F8AC210132A3F8AC2176
S3150800215093F8AE31022B01D1FFF798FE236893F866
S31508002160AE31002B4ED1FFF759FD2468F0EE408AB8
S31508002170B4F9AC31D4F8A40108EE103A4FF08DF951
S3150800218007EE900ADFED226AB8EEE77ADFED217AEC
S3150800219094F8AF31B8EEC88A002B46FEA77A47EE08
S315080021A0287AB4EEE78AF1EE10FA05DC53B304F5A3
S315080021B0005292F827292AB394F88B21022A13D0C1
S315080021C00023A4F8AC31012384F8AE31FF2384F848
S315080021D0823194F82935032B14D1BDEC028BBDE866
S315080021E010401E2023F09ABB63B194F82A351E2BA3
S315080021F005D1BDEC028BBDE81040FFF717BE0823DA
S3150800220084F82635BDEC028B10BD00BF784300204C
S3150800221000007A4300007A4470B5037873BB184B04
S315080022201B6893F8B20108B1012070BD3C25D3F8AC
S315080022309011144A012402EBC1021179124A83F85B
S31508002240B24105FB0122B2F91850104905EB4506C3
S3150800225001EB8606C3F898610C2606FB0511B1F951
S315080022600210C3F89C01C3F89411B2F91C1083F844
S31508002270B1010029D8D023F035FDD5E70020D4E7F1
S315080022807843002084460508F85905088C7F050818
S31508002290044B1B6893F8AE31022B01D1FFF7BCBF84
S315080022A000207047784300202DE9F7433B4825F086
S315080022B027FF06220421CDE900210022384E0346D5
S315080022C01146104625F0B2FA33680020D3F890215B
S315080022D0344B354F53F832503C682A46DFF8D0C0A5
S315080022E012B112F8013B6BBB00EBD0704410DFF85B
S315080022F0C080C4F1A004002D35D130682B4BD0F82E
S3150800230098211B6811781B6A527803EBC103596838
S3150800231002F07F0202EBC20201EB420431F91230ED
S31508002320227CB0F9400802F001020432019206222A
S3150800233003440092AA210022A02025F077FA03B0D0
S31508002340BDE8F08313F80C1001F00301022908BF59
S31508002350203B213B3F2B97BF54F823300430B3F979
S315080023600030C018BCE715F8013B002BC5D013F8A0
S31508002370082002F00302022A08BF203B213B3F2B1C
S3150800238001D90434B7E73A68204652F82320902149
S31508002390B2F9009022F04CF84C44ACE79145050898
S315080023A07843002084460508B86C00204083002046
S315080023B0D9D307082DE9F047794D86B02B6893F8ED
S315080023C0AE21022A04D106B0BDE8F047FFF76CBF7C
S315080023D0002A47D1D3F8A80124F098FE2B680A26CC
S315080023E0D3F8A451B3F9AC3137460A3B07EE903A15
S315080023F0FFF714FCF8EEE77A87EE807ABDEEC77A27
S3150800240017EE103A002BACBF05EB030805F10008E0
S31508002410DFF8B491DFF8B4A1454502D106B0BDE8AE
S31508002420F08715F8013B002BF8D00A2B02D10B36A2
S315080024301F46F1E713F8092002F00302022A08BF33
S31508002440203B213B3F2B01D93B1DF1E7DAF8002061
S31508002450314652F823203846B2F9004021F0E8FF09
S315080024603B19E5E793F82925013A032AD6D8DFE888
S3150800247002F002131A9593F88B310424032B0CBF30
S315080024804848494825F03CFE034601940622009236
S315080024900022114610467EE0444825F031FE04220B
S315080024A003460192F2E7B3F9AC41E63C04EBD47477
S315080024B06410644204F5A076002E29DC3C4825F019
S315080024C01FFE04240622CDE90024002203461146F5
S315080024D0104625F0ABF940F269422B68B3F9AC41D6
S315080024E094429BDD40F29B4294422DDC314825F014
S315080024F007FE0622034604204421CDE900200022D7
S315080025006C2025F093F900222B6883F8B02185E723
S31508002510294825F0F5FD04270022B6F5A07F4FF0DF
S31508002520060603461146CDE90067D1DA604225F072
S315080025307DF91F4825F0E4FD002203461F48114691
S31508002540CDE90067001BC4E740F2BE429442DFBFF4
S315080025500522A4F29C4424B2B4FBF2F4C8BF0624B4
S3150800256093F8B031A34206DA0121002023F0BAFB22
S315080025702B6883F8B0412246114903A831F05AFB6B
S3150800258003A825F0BDFD062204210346CDE9002156
S315080025906C200022442125F049F93FE709487CE7E9
S315080025A0784300209A450508A1450508A74505086A
S315080025B01A470508B045050814470508C0FEFFFF79
S315080025C0B5450508BB450508D9D30708B86C0020EA
S315080025D00020024B1B68C3F8B401704778430020FB
S315080025E00020024B1B68C3F8B401704778430020EB
S315080025F010B572B6064CC4F800D0A54681B062B6CE
S315080026002EF070FD72B6D4F800D062B610BD00BFC9
S31508002610304300202DE9F041044603F0E3FA03268F
S315080026204FF6F1774FF00008424202F00F0200F031
S315080026300F0358BF53425B42238004F27E2503F002
S31508002640D1FA90FBF6F303EB430334F9022BC31AD2
S31508002650013B13441BB2002B05DDA4F80080AC42F5
S31508002660EDD1BDE8F08113F1100F14BF2380278048
S31508002670F5E700002DE9F84F894606460125344F4F
S3150800268007F5143816B92846BDE8F88FFFF7B0FFE6
S3150800269000214FF4963E4FF4A07CA9F1020434F9C8
S315080026A0022F002A08DA0132228000250131B1F50D
S315080026B0A07FF4D1013EE5E7EF2AF7DC0F2ACEBF6B
S315080026C00923531C1BB2C2F1F0051A44EF2AC8BFEE
S315080026D02B462048ED1A4543002098F80B2CC3F1E9
S315080026E0EF0A0EFB021202F204423A440CFB0A2AD3
S315080026F002F59532C032854222D198F80B0CB4F90E
S315080027000050C0F101020EFB02120EFB001002F28D
S31508002710044200F2044015FB0C2215FB0C050020B0
S315080027200CFB03FA3A443D4412F800B005F800B031
S3150800273000F5A0708245F7D1228813442380B4E7B8
S315080027401AF800B002F800B0A0F5A070D3E700BFF1
S3150800275014930120C0FEFFFFF8B5214D2A6892F9AF
S31508002760823113B9FF2382F882310023B820022769
S315080027701C4682F827352968CA1892F83F253AB1C7
S3150800278000FB031292F83062012E08BF82F83072FD
S3150800279000FB03F2013302F26E228E18042B8C50D2
S315080027A07460E8D10F4B28681C800F4B90F82A15E7
S315080027B01C800E4B00221C8090F9283590F82905BC
S315080027C017F056FD2B6883F82645A3F8324583F89B
S315080027D03C4523F0BBFEBDE8F84001F011BB00BF45
S315080027E07843002008100020101000200010002058
S315080027F038B520F07E45012204460949284630F0BE
S31508002800B5FB084A536B03F00303032BFAD10648BA
S31508002810064B04F0030401350444207D1D6038BDD1
S315080028203CEF03200000045030EF032028EF03207C
S315080028301FB520F07E40CDE90221019030F0D4FA90
S31508002840DDE90221019805B05DF804EB30F024BB00
S315080028502DE9F84380460E460025134FDFF85490BD
S31508002860741BB4F5807F28BF4FF48074494622460E
S31508002870386830F07BFB0D4A536B03F00303032BD8
S31508002880FAD139680A4B01F00301194408EB05002F
S3150800289022464EF051FD3B6825442344AE423B6038
S315080028A0DED8BDE8F88300BF28EF032000000450F7
S315080028B044EF03203CEF0320F8B50023564F03608E
S315080028C0436004463868B0F8322590F8C935C2F333
S315080028D0C001594012F4407300F0888090F83435EE
S315080028E00133DBB2062B80F8343540F283800623A9
S315080028F080F834350B46960541BF484D55F82350A8
S315080029006D426580D50505D5444D55F82330658853
S315080029102B44638012F040030EBF1D46404B53F80C
S315080029202150160642BF3E4B53F82130ED1A12F4D9
S3150800293000661CBF3B4B53F82160530542BF394B19
S3150800294053F82130F61A530744BF0123E3711107E0
S3150800295042BFE37943F00203E371D3064DD5B822AB
S3150800296090F8463502FB030000F50B7016F078FF69
S315080029700A281FBFE37943F0040343EAC000E07165
S315080029806FF031039E42B8BF1E46322EA8BF3226CC
S31508002990002D3ED0AB42B8BF2B46322BA8BF322300
S315080029A03A685BB2D2F814255AB91F490A68013247
S315080029B00A60D20605D143F00103022B01DD023B72
S315080029C05BB222781344237063781E44B4F902304C
S315080029D066704BB13A68D2F814252AB143F0010360
S315080029E0022BC4BF023B1BB26380F8BD80F83435A6
S315080029F0022380E73FF47EAFFAE79106C0D5B822F6
S31508002A0090F8463502FB030000F50B7016F052FFEE
S31508002A10AEE72B46D5E700BF784300208048050877
S31508002A200C490508004A05087043002038B5244DAE
S31508002A3004462B6893F8261593F82725D1B993F8F9
S31508002A40431599B9032A15D193F83C2592070FD453
S31508002A501B7BDB070CD4237823B1023B012B07D859
S31508002A6063682BB102F0FCF8012038BD032AEBD0CD
S31508002A700020FAE7022A0FD023789BB1012BF7D161
S31508002A8062680F2AF4DC29689340B1F8322522EAF5
S31508002A900303A1F83235EBE72046FFF7F9FB0028D8
S31508002AA0EAD0E1E763680F2BDEDC01202A6800FA2A
S31508002AB003F3B2F832150B43A2F83235D5E700BF57
S31508002AC0784300202DE9F0470F46B8215A4E804634
S31508002AD0326801FB0023D3F82C02D0B9034602F56D
S31508002AE00B7212E001FB03F01058B7F90050446965
S31508002AF0B4EB054F08D1B7F902408069B0EB044F33
S31508002B0002D10020BDE8F08701334345EADB012006
S31508002B10F8E7B7F90040B7F9025024042D042A460D
S31508002B20214613F07FFF0028EBD0DFF82C91DFF861
S31508002B302CA199F80030072B09D903F007033AF8B6
S31508002B40130010B1830043F0005015F017FDB822AA
S31508002B50306899F8003002FB0800D0F82C2203F000
S31508002B600701920801332AF811202046294689F8D8
S31508002B7000301EF0E5FA2D23B7F90410804691FBC4
S31508002B80F3F18902B1F5A05F4CD01BDCB1F5805F8B
S31508002B9022D011DCB1F5006F03D00ADC21F4806382
S31508002BA053B9264B1B6853F82170254B53F821104F
S31508002BB017E0B1F5406FF4D0224831F0C5F900218D
S31508002BC00F460EE0B1F5C05F31D0B1F5E05FF3D145
S31508002BD01D4B1F681D4B03E01D4B03F5005217687C
S31508002BE0196814203268B8F80030D2F8E826C3F31A
S31508002BF008031B01D25E00FB01512723520300FB89
S31508002C00074015F0ABFBB821336893F8462501FB5E
S31508002C100233D3F83C32012B3FF479AF232123F05A
S31508002C2061F874E7094B1F68A3F50053D8E7044B0E
S31508002C301F68084BD4E700BF78430020E83406082D
S31508002C40EC34060820470508EC440608EC04070897
S31508002C50ECD40608ECF406086C4300205C4300201C
S31508002C601A4B2DE9F3411B68194F1A4ADB1B5E10F4
S31508002C701E2B044602FB06F603DC3146164831F0E5
S31508002C8063F94FF014080A2502F09CFF014690FBF1
S31508002C90F6F000FB161105FB017120460191FFF7BE
S31508002CA011FF019938B1631CCB80204602B0BDE8FC
S31508002CB0F04115F00DBFB8F10108E5D16543074BA2
S31508002CC005F2447519682944EFE700BF38750020F6
S31508002CD03C750020CDCCCCCC424705087843002073
S31508002CE0B8232DE9F04385B005466F4643432B4E7E
S31508002CF003F26E29D6F800C00CEB090202F1100E99
S31508002D003C4610685168083203C472452746F7D115
S31508002D10B822554303F50B700CEB050400216044FB
S31508002D20B4F9A682D4F8A8724EF02DFB6B4603CBF5
S31508002D3040F20113326842F80900306802EB090CC8
S31508002D400544CCF80410A5F8A682C5F8A872A4F81C
S31508002D509C32002384F83032114B4FF001121B6865
S31508002D60C4F87822A4F854320123A4F87632A4F8D9
S31508002D707C320C4B1B68A4F88C320B4B1A68A4F8EF
S31508002D8094225A68A4F896229A68DB68A4F89822CE
S31508002D90A4F89A3205B0BDE8F08300BF7843002056
S31508002DA0A00C06089C0C0608A40C06082DE9F041A0
S31508002DB01C4F0446396891F8303523B9012381F848
S31508002DC02635BDE8F081B823FF2203FB0013D3F8AC
S31508002DD02C3283F82C2091F82C351BB1BDE8F04134
S31508002DE0FFF73EBF0A25454305F244752944FFF718
S31508002DF069FE10B1396829440BE040F2447640F286
S31508002E006C78396820463144FFF75CFE30B1396882
S31508002E1031442046BDE8F04115F05ABE0A3646450B
S31508002E20EFD1E7E77843002008B522F09DFD0022A0
S31508002E30034B1B6883F83A25062283F8262508BD26
S31508002E407843002008B522F08FFD094B1B6893F8DC
S31508002E508B21022A0AD193F84525003A18BF012288
S31508002E6083F83A25062283F8262508BD0122F7E7C6
S31508002E707843002000222DE9F84340F25A201146F3
S31508002E80B826854C236883F8262523689D1895F867
S31508002E903F5585B11D1819506960A96000F10C05E8
S31508002EA059515F1906FB0233B980C3F82C12C3F8CF
S31508002EB0B812C3F8B0120132042A00F1B800E4D1FE
S31508002EC023681B7BDB0701D5FDF7E6FB236893F830
S31508002ED08B0193F82A2502280AD0092A08D101214C
S31508002EE083F8E01283F8981383F8501483F80815CA
S31508002EF0B82193F8467593F8295501FB073191F8DF
S31508002F00E012561E83F8C511022805F1FF3193F821
S31508002F103AC583F8C41183F8C66140F09E80BCF1B7
S31508002F20000F00F094800F2A00F08D801F2A00F011
S31508002F30AA80B3F81C150228A3F8C811B3F82015FF
S31508002F4008BF564AA3F8CA11B3F8221508BF52F8A3
S31508002F502620A3F8CC114FF00001A3F8CE111EBF0E
S31508002F600A2101FB05224E494FF0140C18BF51F8EF
S31508002F70222023214FF0B8094A430021A3F8D4712F
S31508002F80C3F8D02109FB01F523680CFB01F05E1894
S31508002F9096F83F6503EB050EBEF8A68206F0010615
S31508002FA01A1846EA4806A2F8DC61BEF9A862D3F800
S31508002FB03078C2F8E061BEF8AA62013182F8D861B9
S31508002FC0D2F8D861042967F31F26C2F8D86100F53C
S31508002FD0F27205F26E2003EB0005185803EB0206A1
S31508002FE0985068687060CDD123202368D3F83028BC
S31508002FF092FBF0F1D3F8102500FB0122C3F8102547
S31508003000C3F82822012283F827251A7B22F0010219
S315080030101A73244A12787AB193F8432512B993F8A9
S315080030203E254AB193F88B1193F82A2502292DD10A
S3150800303011461D4830F088FF2068BDE8F84300F5C2
S31508003040E27026F08BBF1E2183F8C71171E7A2F143
S315080030501F01012917D80F21F6E7BCF1000F01D08F
S315080030600821F1E7092A0ED103293FF662AFDFE806
S3150800307001F0020406080321E6E70521E4E7062134
S31508003080E2E70221E0E783F8C72152E793F829151A
S31508003090064830F059FFCFE7784300208C480508EA
S315080030A060490508842B0508674705087A47050817
S315080030B00822144B1B6893F83A1583F8262539B16C
S315080030C0B82093F8462500FB0232012082F8E00278
S315080030D093F88B0193F82A2502280CD11F2A0FD8BA
S315080030E001239340084A1A401AB913F0802F07D0D3
S315080030F031B1FEF7ABBD082A04BF072283F826259F
S31508003100704700BF7843002040081040FF2138B5BB
S315080031100024094D2B6803F5005282F8331993F8F9
S31508003120C72183F82745013283F82A25FFF714FBC0
S315080031302B6883F8264538BD784300204FF496322D
S315080031402DE9F843214C224D04F5143393F80B3C32
S31508003150204F02FB03442FF0E1FD1F4BA0F5005062
S3150800316004F2044420F07E4018604FF44071204673
S31508003170FFF76EFBDFF86880DFF8689004F54076A5
S315080031802368012B0AD0284614494EF07EF960348C
S31508003190B44205F10805F3D1BDE8F8833B6893F816
S315080031A08B31022B06D14A4608212846E36830F0BF
S315080031B055FDECE7414628464EF067F9A3683033DB
S315080031C06B70E3683033EB70E1E700BF14930120BE
S315080031D0D66E00207843002028EF03208C47050888
S315080031E099470508924705084FF49632F8B5354CC5
S315080031F0354D04F5143393F80B3C02FB03442FF0CA
S315080032008DFD324BA0F5005004F2044420F07E40B8
S3150800321018604FF440712046FFF71AFB01202A6810
S3150800322092F8393503EB43035901605092F8281593
S3150800323004EB4313197192F8291503F140079960B5
S3150800324092F82A15D960D2F81015196192F8C9159D
S31508003250596192F888119961B82192F8460510FBD0
S3150800326001F000F27A26164403F11C0136F902CB66
S3150800327041F804CBB942F9D100F523700244503322
S3150800328032F9020B41F8040BB2F906009942C860FC
S31508003290F6D12FF043FDA0F5005021464FF44072B9
S315080032A040F09050FFF7C4FAB8212B6893F84625EA
S315080032B001FB0233064AC3F8AC22BDE8F840FFF723
S315080032C03DBF00BF149301207843002028EF032058
S315080032D09E470508024B1B6883F83905FFF784BF2C
S315080032E07843002000B5144B89B00093134B1B6834
S315080032F093F88821029293F8C925019293F8C82574
S3150800330003F50053039293F8312993F83039049260
S315080033100B4A05935168106806AB03C32FF0FEFCF1
S31508003320A0F580402022694640F09050FFF780FAC9
S3150800333009B05DF804FB00BFD2EADDBA7843002085
S31508003340D112002070B53C4E202206F5143393F8AE
S315080033500B5C4FF496335D4305F20445AC19002126
S3150800336020464EF010F82FF0D9FC344BA0F58040DB
S3150800337020F07E40186020212046FFF769FAAA59F6
S315080033802F4B9A4257D1A2682E4D042A28BF0422F1
S315080033902B68002083F8882162681834003A18BF21
S315080033A0012283F8C92554F80C2C003A18BF0122CB
S315080033B083F8C82554F8042C03F500530F2A28BFB0
S315080033C00F2283F8302954F8082C0F2A28BF0F2219
S315080033D083F8312924F052FA03CC1B4A1060516055
S315080033E011780120213939298CBF0021012121B901
S315080033F03F231370302353700DE0135C5BB1213B00
S31508003400DBB2392B00F101008CBF0021012108280D
S31508003410EDD1392BECD82B6803F5005393F8300916
S3150800342022F03CF92B68BDE8704003F5005393F889
S31508003430310922F017B970BD1493012028EF032033
S31508003440D2EADDBA78430020D1120020054B1B686A
S3150800345083F83825022283F8360583F8371583F86A
S3150800346026257047784300200022034B1B6883F803
S31508003470432583F844257047784300202DE9F04119
S315080034802B4F15463B68064693F83C250C4622B159
S31508003490002283F83C2522F0C9F83B68042E93F8ED
S315080034A08B31B046A8BF4FF00408012CB8BF0124E1
S315080034B0032B34D1042CA8BF0424002D36DD092D96
S315080034C002DD022B18BF092502F09CFB02223B688D
S315080034D0032E83F8302283F8E82283F8A02383F8A2
S315080034E058244FF48072A3F83C251A7BD8BF0026CF
S315080034F022F00102C8BF01261A73002283F83B6531
S3150800350083F8294583F82A5583F828850948C3F896
S31508003510102530F019FDBDE8F041FFF71DB91BB1C4
S31508003520032CA8BF0324C8E70124C6E70125CBE777
S3150800353078430020AA4705084FF49632F8B5364D69
S31508003540364E05F5143393F80B3C02FB03552FF062
S31508003550E5FB334BA0F5005005F2044520F07E400C
S3150800356018604FF440712846FFF772F9336893F8EC
S31508003570394504EB44046201AA5805EB4414012AB0
S3150800358048D12279274883F82825A26883F829256F
S31508003590E26883F82A25626983F8C925A26983F84F
S315080035A0882130F0D1FC336893F82A2593F8291539
S315080035B093F92805FFF762FF3168236991F84655A4
S315080035C0C1F81035B82315FB03F303F27A2004F18A
S315080035D01C02084404F1400652F8047BB24220F863
S315080035E0027BF9D103F523730B44503452F8040BCC
S315080035F023F8020BD068A242D880F7D1B82303FB80
S315080036000511094BB1F994221B689A42C4BF0123DC
S3150800361081F86C32F8BD00BF14930120784300206E
S3150800362028EF0320C0470508A40C06080022044B0F
S315080036301B6883F8390583F84325FFF77DBF00BF6C
S315080036407843002010B5FFF70FFF0122084C2368C6
S3150800365083F8382593F8371593F93605FFF70EFFE3
S315080036600022236883F82625BDE8104022F06EBFA5
S31508003670784300202DE9F04F7A4B85B001A91868E8
S3150800368024F09CFC002301A88DF80C3024F038FDAA
S31508003690754C764E2060356824F028FEC5F8B801CA
S315080036A0206824F0CBFDD6F800900546D9F870318D
S315080036B0D9F8B8B1C9F8BC01C9F8183510B96C48B9
S315080036C030F042FC58463468FFF792F80022336817
S315080036D084F82B0593F82B15C3F8142504290BD960
S315080036E0A1F16803072B07D901F13803DBB20E2BCA
S315080036F002D9604830F028FC336893F82B45C72C6C
S3150800370069D86E2C88BF012264B288BFC3F8142515
S31508003710632C0BF101070BF102080BF1030A4CDDD0
S31508003720082D02D8524830F00FFC3846FFF760F8EB
S3150800373044B24046FFF75CF807465046FFF758F88C
S3150800374080460BF1090AAAEB0B0304339D4202D209
S31508003750474830F0F9FB00250AEB0500D6F800B01B
S31508003760FFF746F8B82200233168AB448BF83F05CB
S3150800377002FB05100135042DC0F8A032ECD191F8F2
S3150800378026350AF10405032B04D04246394620465D
S31508003790FFF774FE00223368C9F8C05183F826255E
S315080037A083F83D25012283F8432500F07BFC336826
S315080037B0C3F80C0505B0BDE8F08F022D02D82C48D9
S315080037C030F0C2FB3846FFF713F807464046FFF7C6
S315080037D00FF88046B7E7C83C0BF1070A0E2C0ED83F
S315080037E0DFE804F0080808350D0D0D0D0D0D393903
S315080037F039393C00082D02D21D4830F0A5FBAAEB4A
S315080038000B0305339D4202D2194830F09DFB504602
S31508003810FEF7EEFF44B20AF10100FEF7E9FF07469C
S315080038200AF10200FEF7E4FFAAEB0B0345339D42BB
S31508003830804602D20E4830F087FB336893F82B3562
S31508003840C82B14BF0AF1450A0AF2051A7BE79BF84A
S3150800385002304D2BD3D10BF1080AD0E70122C3F869
S315080038601425F8E774430020EC0F00207843002065
S31508003870CC470508F147050837B5164D2B6893F868
S315080038803E35ABB140F6AC5400F00CFC2B68D3F8CF
S315080038907011D3F80C254C43821AB4FBF2F4642059
S315080038A0B4FBF0F300FB13440B48009430F04CFBD8
S315080038B02B6893F8430558B1084B1A6801321CBFA8
S315080038C04FF0FF321A60FFF7CFFDFDF763FD0120C9
S315080038D003B030BD784300201B480508EC0F0020D4
S315080038E037B5254D254A2B680446D3F8C0316846B6
S315080038F023F07E4305211360FEF7AAFF9DF800001A
S31508003900802803D1FFF7B8FF03B030BD2B6893F8C2
S3150800391043258AB1D3F81415D3F8C021002914BF5A
S31508003920052104211144D3E96E252A44914203D97D
S31508003930134830F009FBE5E79DF801202070627016
S31508003940D3F814159DF802209DF8030061B91202F8
S315080039506280E071002914BF05210421D3F8C02133
S315080039600A44C3F8C021CFE702EB002262809DF823
S315080039700420E271EEE700BF7843002028EF032019
S3150800398058480508F8B513F067FD0024B8265D4DBC
S315080039902B681A1992F83F2542B106FB043393F8AF
S315080039A03032022B02D12046FFF700FA0134042CEC
S315080039B0EED113F05FFD02242B6893F82625511EDD
S315080039C08ABB93F8301509B1C3F8182593F83C2536
S315080039D0900709D493F84325002A4CD193F8D125AA
S315080039E0002A48D0002946D1D3F818250132C3F851
S315080039F018252A6892F8353592F827259A4208D06C
S31508003A00012B01D125F04EF92B6893F8272583F869
S31508003A1035252A6892F8273592F83C25920755D518
S31508003A20002B59D0F8BD0729CAD8DFE801F0040FE2
S31508003A301215181B1E2183F8304283F8E84283F8D2
S31508003A40A04383F85844FEF787FEB5E7FFF7FAFD6B
S31508003A50B2E7FFF771FDAFE7FFF7C6FBACE7FFF785
S31508003A6009FEA9E7FFF706FAA6E7FEF7EFF8A3E7C8
S31508003A70FFF74CFBA0E70026B827D3F870315A4267
S31508003A8002F0070203F0070358BF5342DB0003F1B5
S31508003A9064042B689A1992F83F259AB107FB06F237
S31508003AA004EB861103EB010C595802F232229950A5
S31508003AB0DCF8041098182B68416093F843350BB16D
S31508003AC0FFF70EFF0136042EE3D192E7032BA9D8A0
S31508003AD0DFE803F0020C10141AF040FD22F09EFAFB
S31508003AE0FCF78CFFBDE8F84000F04CBABDE8F8409A
S31508003AF026F0B0B9BDE8F840FEF71EBBBDE8F840B1
S31508003B00FDF750BC7843002008B5174A174B00212B
S31508003B101360184642F638124DF035FC43F233323C
S31508003B20012102654FF6FF72034680F85A10A0F885
S31508003B3058204FF48030C3E917004FF6037083F816
S31508003B40C815A3F8820103F656010420C3F85818CD
S31508003B5040F60F7183F88B0103F50053A3F830196B
S31508003B60A3F8BC2808BD00BF784300208043002086
S31508003B704360BDF90030018003810023438103734C
S31508003B804FF480334280C3627047B0F90A2000239D
S31508003B901F2A13D00A291CBF01324281B0F92C20F2
S31508003BA008BF4381531C1BB202448385117300224C
S31508003BB003441A730423C3850120704718467047C7
S31508003BC02DE9F14F054604466FF00B090F464FF0F5
S31508003BD05008B0F90260DFF8ACA035F90C0BA9EB78
S31508003BE00409B4F92C2009EB05039A4232DD15F8CD
S31508003BF0013B1AF8032002F00302022A08BF203B01
S31508003C00DBB20A2B02D100200836EAE7092B06D1D7
S31508003C1090FBF8F308FB1303C01A5030E1E7202B9A
S31508003C2014D0B4F908209A4210DC5F2B0ED89B1AE0
S31508003C30626852F82320B2F900B08344BBF5A07F2E
S31508003C4008DC314620F0F4FB5846CAE70430B0F5E4
S31508003C50A07FC6DB9FB1B4F908306268C3F15F0381
S31508003C6052F82330B3F900200244B2F5A07F06DCEF
S31508003C700022314601B0BDE8F04F23F0D5BA01B0B5
S31508003C80BDE8F08FD9D30708B0F92E300BB1013B48
S31508003C90C385704710B5049C03864463012480F8E5
S31508003CA038400024A34244860BDD029B0180436012
S31508003CB0BDF90C30428003814FF48033448104738C
S31508003CC0C36210BD438E70B501331BB243860446EA
S31508003CD0B0F930001646834208BF00234FF0300281
S31508003CE008BF6386B4F9323002FB034300229042D0
S31508003CF09A855A811A73D5BF01220423DA85E3858A
S31508003D0019B14D1E15F8011F21B9013E16F8011FFC
S31508003D1049B970BDB4F9320000EB400004EB00105D
S31508003D20FFF733FFEEE7B4F9320000EB400004EB8F
S31508003D300010FFF72AFFE9E770B5436B04461B78C6
S31508003D4083B970BDB4F932000021401B48BFC018C2
S31508003D5006FB0040FFF734FF0135B4F93030AB42BB
S31508003D60F0DCEEE700253026F7E710B5024600211D
S31508003D700424B2F930308B4204DC536B1B7882F88A
S31508003D80383010BD92F838301BB1536B1B7803B925
S31508003D90C485FFF779FF01313030EAE72DE9FF41A5
S31508003DA0002301223F21042026F096FB2124124DF0
S31508003DB0DFF8488028602246414601A82FF03AFFDE
S31508003DC001A824F09DF9012200212F6824F056F855
S31508003DD00134A600883E602CB851ECD12C6801232A
S31508003DE00022FC21204623F081FF2860204626F089
S31508003DF0C3FA04B0BDE8F081B86C0020084A05088B
S31508003E007FB52D4D0023286890F8B7250AB180F8AC
S31508003E10B73500222124294E80F8B53580F8B63505
S31508003E2000F2B553029333681146009300F5AF606C
S31508003E3001230194FFF72EFF336828681A680021CA
S31508003E40528800F5A960C2F1CF0212B20094FFF7BA
S31508003E508FFE2B6893F8272592B993F88B1193F860
S31508003E602A25012901D9032915D193F82935013BBA
S31508003E7003EBC3031344124A013B52F8234000E004
S31508003E80104C013C14F8011F286881B9012380F8F9
S31508003E90B73504B070BD93F88C11531E022901D1B1
S31508003EA0094AEAE703290CBF084A094AE5E700F583
S31508003EB0A960FFF76AFEE5E778430020B86C0020A2
S31508003EC0FC540508131E06088C5605080C560508EA
S31508003ED08C55050810B5064C206800F5AF60FFF74D
S31508003EE044FF2068BDE8104000F5A960FFF7CCBE86
S31508003EF07843002030B5204D8FB02868047B14F035
S31508003F0001040ED0002100F5A960FFF759FEFFF75E
S31508003F10E1FF286800F5AF600FB0BDE83040FFF755
S31508003F200BBF2121154B02A81B681A6852880091FD
S31508003F30C2F1CF02214612B2FFF71AFE0A212B68F8
S31508003F4005A8B3F88021B2FBF1F301FB132292B264
S31508003F50202100920A4A2FF081FE042305A8ADF815
S31508003F6036304DF09AFA00B2ADF81200ADF83400CA
S31508003F70214602A8C9E700BF78430020B86C002094
S31508003F80124A050838B5154D286890F8B43590F8E2
S31508003F90474533B1013BDBB280F8B4350BB980F83D
S31508003FA0B53590F8C83513B990F8B635A3B1B82326
S31508003FB003FB0404D4F8AC2272B1002100F5AF600B
S31508003FC0FFF780FE00224FF4C6712B68C4F8AC22B6
S31508003FD0A3F8B41583F8B62538BD00BF784300208A
S31508003FE00020704770B502FB011502FB0555A2F5C6
S31508003FF0807202FB01F46243A1EB22447F2C064641
S31508004000A1EB254502D907482FF09EFF7F2D02D93F
S3150800401005482FF099FF054800EBC60045718471E5
S3150800402070BD00BF0C570508235705085892012094
S3150800403038B50C46072C114605461A460ED82046B2
S31508004040FFF7D0FF4FF6FF72064B23F83420002205
S3150800405003EBC4035A801D71204638BD4FF0FF3468
S31508004060FAE700BF5892012001482FF06DBF00BF44
S315080040703957050808B5C0B202F096F801F0A4FF52
S31508004080BDE8084001F0D6BF70477047C00002F08F
S315080040901DB80000024B586A0A23B0FBF3F07047BC
S315080040A000800450094B0A4A586A0A231268B0FB72
S315080040B0F3F3D2F8B80510B9C2F8B8357047181A2C
S315080040C046F69B73B0FBF3F0704700BF00800450C0
S315080040D078430020044B1B7813B1044B1B780BB9AB
S315080040E0FFF7C2BF704700BF852B0508862B05085A
S315080040F0002307B50DF10600ADF806302FF07EF85F
S31508004100BDF8060003B05DF804FB0000F0B585B005
S31508004110FFF7EEFF00F0040410F0200F00F0020590
S3150800412000F0100100F0080200F08003A4B258D095
S31508004130002C18BF4FF400640DB144F4806411B12B
S3150800414044F48054A4B212B144F02004A4B213B1CA
S3150800415044F00404A4B210F09E0F02D144F0020405
S31508004160A4B2C60744BF44F04004A4B245064FF0C3
S31508004170000548BF44F08004244F00F0180048BFEB
S31508004180A4B2182808BF44F400543E8808BFA4B255
S315080041906640B6B28DF8005046FA05F3D80707D53B
S315080041A044FA05F3D90703D568460195FDF7CAF819
S315080041B00135102DF0D1012300258DF8003046FA7F
S315080041C005F3DA0707D544FA05F3DB0703D468468F
S315080041D00195FDF7B7F80135102DF0D13C8005B0F3
S315080041E0F0BD002C18BF4FF400740DB144F4807470
S315080041F011B144F00804A4B212B144F01004A4B2F8
S31508004200002BAED044F00404AAE700BFBC6C002023
S315080042104FF49631094B012003F5143292F80B2C12
S3150800422001FB0233064A03F20443126802F5005200
S31508004230C2F8D838034A1360704700BF14930120A8
S3150800424078430020A0800020F8B5284B284C1B682E
S31508004250014693F8885193F8C005C3F8BC45254B29
S3150800426026461B685A6A4FF440735843131802F5DA
S315080042704072104435B3204A02EB05251A780333F9
S31508004280AA5CD70813F8022CAA5C9208520142EAE3
S31508004290C72213F8017C8342EF5D42EAD70252BA7D
S315080042A026F8022BEAD1154B1C6003F5143494F852
S315080042B00B0C2EF0F3F994F80B3CC3F1010384F8C8
S315080042C00B3CF8BD1A780333D50813F8022C92086C
S315080042D0520142EAC52213F8015C984242EAD50225
S315080042E052BA26F8022BEDD1DDE700BF784300204D
S315080042F0BE6C002040830020BC7007081493012080
S31508004300024B1B6883F8C005704700BF784300203E
S315080043104FF00043C36003606FF00043C0E9013308
S31508004320704783688B4205DD81604368934206DDEA
S3150800433042607047C3688B42B8BFC160F5E703683F
S315080043409342B8BF026070470B4B1A6892F846153D
S3150800435002F50B73B82201FB02335A6F82F0020290
S315080043605A67920749BF054A054A12681A8548BF1F
S31508004370044AC3F88020704778430020900C06084A
S3150800438013B20508FCB10508B82230B5264B1968E2
S3150800439091F8460501F50B7300FB023393F84020AC
S315080043A06AB903F1680203F17004B2F9000040002B
S315080043B022F8020B9442F8D1012283F840201B4AC6
S315080043C00124126803F14E005A85194A12689A8523
S315080043D00022551F012D1ED891F88B510DBB0132B5
S315080043E0092AF6D1002203F16000022A02D191F8C7
S315080043F08B410CB1048904800132042A00F10200C1
S31508004400F3D140F201125A874FF00132DA63094AB2
S31508004410C3F8802030BD082A03D191F88B51022DAC
S31508004420DDD120F81240DAE778430020940C06081C
S31508004430980C06082BB20508B82230B5234B196824
S3150800444091F8460501F50B7300FB023393F84020FB
S315080044506AB903F1680203F17004B2F9000040007A
S3150800446022F8020B9442F8D1012283F84020184A18
S315080044700124126803F14E005A85164A12689A8575
S315080044800022551F012D18D891F88B51DDB901323C
S31508004490092AF6D1002203F16000022A02D191F816
S315080044A08B410CB1048904800132042A00F1020010
S315080044B0F3D1094AC3F8802030BD082A03D191F800
S315080044C08B51022DE3D120F81240E0E77843002013
S315080044D0940C0608980C060841B205080A4B1A6897
S315080044E092F8461502F50B73B82201FB02335A6F90
S315080044F0064982F0010212F0010F5A67044A08BF02
S315080045000A46C3F880207047784300206AB2050837
S3150800451056B20508104B1A6892F8461502F50B7341
S31508004520B82201FB02335A6F82F008025A67120753
S3150800453010D50A4A12681A850122A3F85620B3F83C
S315080045406E20A3F866200422A3F84C20044AC3F878
S3150800455080207047034AFAE778430020900C060843
S315080045607FB2050890B205080B4B1A6892F8893194
S3150800457092F84615002B0CBF0123002382F88931D7
S3150800458002F50B734FF0B80201FB02330CBF034A66
S31508004590034AC3F88020704778430020A2B2050872
S315080045A0B1B20508FEF740BC054B05211B6893F818
S315080045B0460503F50B72B82300FB032010F026BB53
S315080045C078430020054B02211B6893F8460503F53E
S315080045D00B72B82300FB032010F018BB78430020A9
S315080045E0054B01211B6893F8460503F50B72B823A2
S315080045F000FB032010F00ABB78430020054B00217E
S315080046001B6893F8460503F50B72B82300FB0320D5
S3150800461010F0FCBA78430020054B04211B6893F878
S31508004620460503F50B72B82300FB032010F0EEBA1B
S315080046307843002038B5B8240C4D00212B6803F5C3
S315080046400B7093F8463503FB04000123A0F85C3091
S315080046500723A0F84C3010F0D9FA2B6893F84625B2
S3150800466002FB0433024AC3F8AC2238BD7843002063
S31508004670C1B2050810B50378E3B90F4A1168426854
S31508004680D1F8C44502F00F0242EA0412C1F8C42563
S315080046900A490846CC68A24207D1142202FB030342
S315080046A01B6903B19847012005E001330D2B01F181
S315080046B01401EFD1002010BD784300205CB3050833
S315080046C0024A1378C3F1010313707047C66E0020BF
S315080046D007B5084823F014FD062204210346CDE950
S315080046E000215E200022022123F0A0F803B05DF825
S315080046F004FB00BF7BB4050807B5084823F000FD96
S31508004700062204210346CDE900213620002226216F
S3150800471023F08CF803B05DF804FB00BF82B40508EB
S3150800472037B50D4823F0ECFC062404250346002281
S315080047300E216020CDE9004523F078F8074823F0DC
S31508004740DFFC0022034626213620CDE9004523F06A
S315080047506DF803B030BD00BF8BB4050892B40508E8
S3150800476001382DF009BA000070B50021012504466C
S315080047700D4E336883F88711C3F82C1583F8301566
S31508004780A3F8461583F83F55A3F8401583F8421554
S315080047902DF090FA33682A4693F8CD1560B229446D
S315080047A0BDE87040FEF752BE7843002070B51F4C36
S315080047B022686AB10023194602EB4116B67B4D0101
S315080047C0360702D5984204D0013301310429F3D1C2
S315080047D070BD17482FF0B8FB2168164A29444B7B51
S315080047E00431C3F302101070134AC3F3810312682D
S315080047F082F8CD358B7A114AC3F380001070104ABF
S31508004800C3F30103137091F909300120002BB4BFDB
S31508004810042203220B4B1A708A880B4BBDE87040A2
S315080048201A80CA88094B1A802DF05CBA04930120B5
S315080048309AB40508C76E002078430020C66E00208B
S31508004840F20F0020D26E0020F40F0020F00F002097
S315080048507FB53E4823F054FC06240425034600226F
S315080048600F215820CDE9004522F0E0FF384B187893
S31508004870384B00EBC000184423F042FC00220346E4
S315080048804521AA20CDE9004522F0D0FF324B187801
S31508004890324B00EBC000184423F032FC00220346DA
S315080048A05521D820CDE9004522F0C0FF2C4B1A88A7
S315080048B0EAB92C48039223F023FC65210346CDE987
S315080048C00045C420039A22F0B1FF274E3488B4B9B4
S315080048D0244823F015FC0622034604207521CDE959
S315080048E000202246C42022F0A1FF04B070BD4FF07C
S315080048F0FF33682140F2191022F0E4FEE5E73C2573
S31508004900B4FBF5F205FB12420223782192B240F27B
S31508004910191022F0D7FE441F144823F0F1FB062293
S3150800492004210346CDE9002120460022782122F001
S315080049307DFF32884FF0FF33B2FBF5F2782120462F
S3150800494004B0BDE8704022F0BDBE00BFB5B405088E
S31508004950F20F0020CCBC0508C66E0020E7BC05088F
S31508004960F00F0020BDB40508F40F0020C5B40508F3
S31508004970B8200C4B1B6893F8C81593F84625C1F167
S315080049800101C9B200FB023283F8C81539B90649D4
S31508004990C2F8AC12012283F8B625FEF7A3BC034978
S315080049A0F6E700BF78430020CDB40508DAB4050859
S315080049B0B8200A4B1B6893F8C92593F84615C2F127
S315080049C00102D2B283F8C92500FB013322B9044A91
S315080049D0C3F8AC22FEF786BC024AF9E77843002002
S315080049E0E6B40508F6B4050810B5114C60B10128FF
S315080049F015D0FEF777FC2368BDE8104003F5005391
S31508004A0093F8300920F04ABE236803F5005393F85B
S31508004A103029002AEDD0013A83F83029E9E72368DE
S31508004A2003F5005393F830290E2AE2D80132F3E74A
S31508004A307843002010B5114C60B1012815D0FEF757
S31508004A4051FC2368BDE8104003F5005393F831097B
S31508004A5020F008BE236803F5005393F83129002A8D
S31508004A60EDD0013A83F83129E9E7236803F50053C5
S31508004A7093F831290E2AE2D80132F3E77843002069
S31508004A8008B540B1012810D0002022F0F7FEBDE895
S31508004A900840FEF727BC094B1A6892F88831002BA4
S31508004AA0F2D0013B82F88831EEE7044B1A6892F897
S31508004AB08831032BE8D80133F4E700BF7843002098
S31508004AC028B9064A137843B1013B13707047012889
S31508004AD003D1024B1A7802B918707047F20F0020FA
S31508004AE020B9054A1388013B138070470128FCD179
S31508004AF0014A13880133F7E7F00F002020B9054A69
S31508004B001388013B138070470128FCD1014A13889A
S31508004B100133F7E7F40F0020054B1B68834205D1E4
S31508004B20044B1B7813B90420FFF71EBE704700BF5D
S31508004B3014490508D26E0020014B1888704700BF3B
S31508004B40F40F0020014B1888704700BFF00F0020B3
S31508004B5070B5234A234B127886B0023A564256411C
S31508004B60214A1C68128894F8CD15ADF80A201F4A08
S31508004B701F4B12781D7812011E4B890001F00C019B
S31508004B8002F070021B780A4342EAC6128DF80D201D
S31508004B909B009DF80E2005F0030503F004032B4344
S31508004BA022F0070213438DF80E30134B134A1B8865
S31508004BB094F88B41ADF80830136804F00304CDF877
S31508004BC00F305368019044F00404002001A98DF8C1
S31508004BD00C40CDF813302DF085F806B070BD00BF37
S31508004BE0D26E002078430020F00F0020C76E002008
S31508004BF0F20F0020C66E0020F40F0020D11200200C
S31508004C00F8B5144B0446B3F90000CD1D23F06EFB2E
S31508004C1029460246A4F108001FF00AFC0E4F04F1CB
S31508004C206006B7F9000023F061FB294602462046D4
S31508004C3008341FF0FDFBB442F3D1084BB3F900006A
S31508004C4023F054FB294602462046BDE8F8401FF0EB
S31508004C50EFBB00BFC46E0020D06E0020D46E0020CB
S31508004C60054B1B6893F8D1252AB9012283F8D1256B
S31508004C70024B034A1A60704778430020C06E002032
S31508004C8074B905080022054B1B6883F8D32583F8F9
S31508004C90D12583F8CE252DF0F5BB00BF784300203B
S31508004CA0002208B51A491B4B09781B68B1FA81F12D
S31508004CB0C3E95B22C3F864210122490983F82D154B
S31508004CC0154983F83025097883F82F15134909788B
S31508004CD0481E90428CBF00200120042983F88701D2
S31508004CE002D002394A424A4183F82C25012293F818
S31508004CF0CD150B4B114493F90000FEF7A7FB2CF0DA
S31508004D00C9FF2CF065FEBDE80840FFF7BBBF00BF32
S31508004D10F20F002078430020C66E0020D26E0020D5
S31508004D20C76E002008B52CF0C5FFBDE80840FFF7A0
S31508004D30A9BF08B50021FEF779FCBDE80840FFF7D2
S31508004D40A1BF000008B5074B07491B6883F8CC05C7
S31508004D50C0B201EBC001FEF7BDFABDE80840FFF797
S31508004D6091BF00BF78430020D66E002008B5094BD6
S31508004D701B6883420CD1084B1B6893F844350BB16A
S31508004D80FEF77AFDFFF77EFFBDE80840FCF78ABB11
S31508004D9008BD00BF14490508784300200022034BCC
S31508004DA01860034B1B6883F8CE257047C06E002039
S31508004DB07843002010B50A4C236893F88B11022912
S31508004DC006D10848FFF7EAFF236883F8CE1510BD19
S31508004DD0012994BF04480548BDE81040FFF7DEBF27
S31508004DE07843002054BA050874B705085CB7050867
S31508004DF00022024B1A70FFF7DDBF00BFD26E0020FB
S31508004E000222024B1A70FFF7D5BF00BFD26E0020F0
S31508004E100122024B1A70FFF7CDBF00BFD26E0020E9
S31508004E200148FFF7BBBF00BFFCB705080148FFF7FD
S31508004E30B5BF00BFBCBA05080749084B0A681A601F
S31508004E404A685A6000221A721A780AB941221A70F8
S31508004E500348FFF7A3BF00BFD1120020F60F0020BA
S31508004E6034B7050808B5FFF715F94CF095FABDE80B
S31508004E7008400148FFF792BFCCB9050808B52CF0E1
S31508004E8019FF0022084B1B68C3E95B22C3F864219B
S31508004E90FCF708FB2DF002FB2CF0E2FEBDE808400B
S31508004EA00248FFF77BBF00BF78430020DCBB05083C
S31508004EB038B505461D4C20464CF0EFFA2DB90128A9
S31508004EC002D9231803F8015C38BD012D07D108283B
S31508004ED0FAD041232354002320444370F4E7032DDA
S31508004EE00AD10028F0D00138235C0133DBB25A2BF3
S31508004EF088BF21232354E7E7022D09D10028E3D0F0
S31508004F000138235C013BDBB2202B98BF5A23F1E71B
S31508004F10042DD9D12368064A136063685360FEF7E7
S31508004F20E1F9BDE838400348FFF738BFF60F00201F
S31508004F30D1120020BCBA05080148FFF72FBF00BFF1
S31508004F4074BC050873B50478002C40F037814368B3
S31508004F505A1C75D09A4D2A6892F8CA0548B392F831
S31508004F60D215012911D1202B0FD06E2B0DD0792BFC
S31508004F700BD094490968994207D093490968994220
S31508004F8003D09249096899425AD192F8CB1582F80A
S31508004F90D115002182F8CA158D4A12680AB1184639
S31508004FA09047002018212B6883F8D10520F09AFE37
S31508004FB045E092F8D14544B9824A12689A423FD1EF
S31508004FC0FFF74EFE17210020F0E78249096899424B
S31508004FD039D1814C92F8CE3526681901726802EBF0
S31508004FE00313DB6883B1535E032B0DD1162120F022
S31508004FF079FE022023682A685B6892F8CE2503EBBF
S315080050000213DB6898471AE022682968B2F900207B
S3150800501091F8CE35013A9342AEBF00230133DBB295
S3150800502081F8CE350020132120F05CFE2B6822681B
S3150800503093F8CE3552681B01D35E0133E4D00124C0
S31508005040204602B070BD65490968994231D1624C63
S3150800505092F8CE3526681901726802EB0313DB68ED
S315080050607BB1565E032E0CD1162120F03BFE236839
S315080050702A685B6892F8CE25304603EB0213DB6894
S31508005080C0E72A6892F8CE350BB923681B88013B1E
S31508005090DBB282F8CE351321002020F023FE2B68E0
S315080050A0226893F8CE3552681B01D35E0133E8D0E7
S315080050B0C5E74B49096899421BD1474C92F8CE354A
S315080050C026681901726802EB0313DB68002BB6D059
S315080050D0535E012BB3DD1621019020F003FE2368F1
S315080050E02A685B6892F8CE25019803EB0213DB6801
S315080050F088E73C49096899421BD1374C92F8CE3566
S3150800510020681901426802EB0313DB68002B96D06E
S31508005110535E012B93DD0020162120F0E3FD236862
S315080051202A685B6892F8CE25012003EB0213DB6838
S3150800513068E72D490968994227D1274C92F8CE3558
S3150800514020681901426802EB0313DB68002B3FF461
S3150800515076AF525E002A3FF472AF022A03D10120CD
S31508005160984716212FE7032A01D10420F8E70121E1
S31508005170002020F0B7FD2A68236892F8CE155B68F0
S31508005180084603EB0113DB683CE7184A12689A42A3
S3150800519003D1FFF777FD182115E7154A12689A42D9
S315080051A00CD10D4B1B6818690028F2D0B3F91410FE
S315080051B0FFF7F4FD2B6883F8CE15ECE700243FE7EC
S315080051C078430020184905081C49050814490508AC
S315080051D0C86E002040490508C06E002054490508DD
S315080051E04C49050850490508444905084849050831
S315080051F05C490508094B1A6892F8CF35013BDBB2C2
S3150800520082F8CF3543B992F8D03583F0010382F896
S31508005210D035082382F8CF35704700BF7843002081
S3150800522030B5094B094D1B68286093F8D1450848E5
S3150800523083F8CB45012483F8D22583F8CA4583F839
S31508005240D145016030BD00BF78430020CC6E0020F8
S31508005250C86E002010B50F4C236893F88B2142B90D
S3150800526078B111460C48FFF7DBFF236883F8CE2593
S3150800527010BD012A05D1022803DD08482EF064FE78
S315080052800020236883F8CD050548FFF787FD02222D
S315080052902368EBE7784300200AB5050866B50508D4
S315080052A054BA0508042838B504460AD10122184913
S315080052B01848FFF7B5FF0022174B1B6883F8CE2561
S315080052C038BD164B1B782BB9FFF74EFABDE83840A8
S315080052D0FFF7D8BC013B012BF2D800202CF04CFC80
S315080052E001202CF049FC02202CF046FC4CF082F8F8
S315080052F005460B4B1C70FFF72BFC28462CF082FC4E
S315080053000848FFF74BFD044B01221B68D6E700BF90
S31508005310194B000894B5050878430020D26E002082
S31508005320C76E0020ACB80508094B1B6893F83D25E5
S3150800533032B993F843251AB911460648FFF770BFE4
S3150800534093F8273513B90448FFF728BD704700BFFF
S3150800535078430020E1B5050844BB05080122024947
S315080053600248FFF75DBF00BF6D4D000815B605087A
S31508005370C82A2DE9F04F1646A8BFC826172AC8BF5F
S31508005380C82585B0044629480F46CCBF95FBF6F5D7
S315080053900825029322F0B4FE8146254822F0B0FE85
S315080053A04FF0060B4FF0040A034600222046394602
S315080053B0CDE900BA083422F039FA4FF00008204641
S315080053C0B04526DB26EAE67605FB0646C5F1080360
S315080053D018481E444FF0060822F092FE4FF00409C2
S315080053E03946034600223046CDE9008922F01EFAE6
S315080053F0029B114803FB054422F082FE0022034665
S3150800540039462046CDE9008922F010FA05B0BDE8F4
S31508005410F08F4B4600223946CDE900BA039022F0B8
S3150800542005FA039808F101082844C9E74EB60508A5
S3150800543057B6050860B6050869B60508F7B51D48E4
S3150800544022F05EFE062504261B4C034600220F2189
S315080054506C20CDE9005622F0E9F92368174F93F836
S31508005460C80500EBC000384422F04AFE0022034675
S315080054705521B420CDE9005622F0D8F9236893F8CF
S31508005480C90500EBC000384422F03AFE0022034664
S315080054906521CE20CDE9005622F0C8F905227721EC
S315080054A0DA20236893F8883103B0BDE8F040FFF7A7
S315080054B05FBF00BF72B6050878430020E7BC050841
S315080054C013B5124822F01CFE062204210346CDE934
S315080054D000213C200022262122F0A8F950210C4C5C
S315080054E008462368102203F5005393F83039FFF76E
S315080054F03FFF102270215020236803F5005393F8CC
