:020000040800F2
:100000000010002059A6020855A60208ED1A0308A0
:1000100055A6020855A6020855A6020855A60208CC
:1000200055A6020855A6020855A6020855A60208BC
:1000300055A6020855A60208CDA4020855A6020836
:1000400055A6020855A6020855A6020855A602089C
:1000500055A6020855A6020855A6020855A602088C
:1000600055A6020855A6020855A6020855A602087C
:1000700055A6020855A6020855A6020855A602086C
:1000800055A6020855A6020855A6020855A602085C
:1000900055A602081128030855A6020855A602080D
:1000A00055A6020855A6020855A6020855A602083C
:1000B00055A60208490105088D0B0508450B0508E2
:1000C000410B050845030508890B0508490B050880
:1000D000610B05084D0B0508CD0B0508310C050813
:1000E00055A6020855A6020855A6020855A60208FC
:1000F0004DEC020855A6020855A6020855A60208AE
:1001000055A6020855A6020855A6020855A60208DB
:1001100055A6020855A6020855A6020855A60208CB
:1001200055A6020855A6020855A6020855A60208BB
:1001300055A6020855A6020855A6020855A60208AB
:1001400055A6020855A6020855A602082DF9020870
:1001500069E6040855A60208C1C70408C7C7040811
:1001600055A6020855A6020855A6020855A602087B
:1001700010B5054C237833B9044B13B1044800E0A3
:1001800000BF0123237010BD584300200000000071
:10019000B8E4070808B5034B1BB10349034800E066
:1001A00000BF08BD000000005C430020B8E4070861
:1001B000A3F5803A704700BF174B002B08BF134BC5
:1001C0009D46FFF7F5FF00218B460F461348144A62
:1001D000121A51F008F80E4B002B00D098470D4B27
:1001E000002B00D098470020002104000D000D488E
:1001F000002802D00C4800E000BF50F099FF20001A
:10020000290032F08BFF50F07FFF00BF0000080094
:1002100000000000000000000010002058430020F3
:10022000000004200000000000000000104A38B563
:10023000136804460133136080EAE07281EAE173D7
:10024000A2EBE072A3EBE173B3EB923F05D8414020
:100250006FF0004080EAE17038BDC5172D040A46F2
:10026000CB17000445EA144150F06EFDF4E700BFDF
:10027000784300201F4B70B51B68D3E9041251EA84
:10028000020006D0187B20F0080018736FF00040C1
:10029000986498699D6A0144D8699C6B024405EB97
:1002A000D570996101EB6001A142DA614FEA600605
:1002B00014DDA41B9C61DC6AD86B04EBD47102EBE7
:1002C000610282424FEA61060EDD801BD8619A69A5
:1002D0002A441A62DA6922445A6270BD186B81425C
:1002E000BCBF801B9861E6E7596B8A42BCBF891B83
:1002F000D961ECE79C430020164BF7B51C684FF022
:10030000A070A26AE36A616DA769E66902EBD27226
:1003100003EBD37307EB620706EB6306019120F052
:10032000F7FE01990546A0624FF4500020F0F0FE60
:1003300005EBD57200EBD073A7EB6202A6EB63036B
:10034000E06215441844A261E3612562606203B073
:10035000F0BD00BF9C4300202DE9F74F0F46016818
:100360004FEA231AA1EB2319144BD40C1B68064641
:1003700053F824B04846594620F0CAFE0C9D3A680E
:100380002D11A2EB05080E4A019052F824104046A8
:10039000009120F0BDFE019B00991C1A484620F0F8
:1003A000B7FE59460544404620F0B2FE5444054489
:1003B0003D60346003B0BDE8F08F00BF48330608ED
:1003C0004C3306088D4B2DE9F04F1B6847685A6A7D
:1003D000F7298A4608BF4FF0000A974289B07ADCB5
:1003E000DC69A742B4BF04240024D0F80CB05A45FD
:1003F00073DBD9698B45B4BF042100210C4240F066
:10040000CC80D0F800C0D3F81890CC4567DA44F01F
:1004100001048268914568DD41F001010C400392BE
:1004200040F0BB80196DACEB0900CDE9011320F061
:100430006FFE029B0199DB694FEA2048F81A02938C
:10044000CDF8108020F064FE039A0014C0F1D007AC
:100450000199A2EB0900059720F05AFEDDE901138E
:100460004FEA2049ABEB0300CDF8189020F050FE86
:100470000014C0F1D002002F07923CDBCF2FCCBF7D
:1004800004230023B8F1000F37DA43F00103002AF8
:1004900039DBD02AA8BF0424B9F1000F35DA44F0C3
:1004A000010413EA040078D1844640F23F1E53EA67
:1004B000040130D1BCF1000F00D0059708B1CDE99F
:1004C0000692BCF1000F01D0CDF81080514604A86F
:1004D00027F0D6F961E0082487E708218EE71A6A39
:1004E0009445C8BF44F0020493E7186A8242C8BF2B
:1004F00041F0020192E70823C4E7B8F5A07FA8BF46
:1005000043F00203C3E70824C6E7B9F5A07FA8BFFC
:1005100044F00204C5E7002B14BF1946214611F030
:10052000080F0CD0A9EB08057D43BE1A95FBF6F524
:10053000002645448B4242D03246A9464BE011F09A
:10054000040F0AD0A7F1D006A9EB08057543BE1A1F
:1005500095FBF6F5CF264544ECE711F0020B1FD0D2
:10056000AEEB0805D61B6E43A9EB080596FBF5F626
:1005700040F23F153E448B4229D1002E1DDBD02E88
:10058000B4BF00230423002D1BDA43F00103A84667
:1005900037464FF0010C234289D009B0BDE8F08FF7
:1005A00011F0010FE7D0BE1A06FB08F6A9EB08050B
:1005B00096FBF5F65D463E44DDE70823E3E70023BE
:1005C000E1E7B5F5A07FE2DB43F00203DFE7002EB1
:1005D0003246A94609DBD02EB4BF00240424002DE6
:1005E00005DA44F001040120D5E70824F7E7B5F562
:1005F000A07FF8DB44F00204F5E700BF9C43002035
:100600002DE9F0470546884617464FF000091E467B
:100610001E4B1F4C1B6886B01B7B04F1700A5B07E6
:1006200041BF1C4B1B68C3F18043ED182368029344
:10063000636803933DB100232A46CDF8009003A9D7
:1006400002A8FFF789FE029B3B440293039B3344BD
:100650000393A3680493E36805933DB100232A46FE
:10066000CDF8009005A904A8FFF776FE049B41464B
:100670003B440493059B02A8334410340593FFF7D1
:10068000A1FE5445D2D106B0BDE8F0879C430020BE
:10069000182405081083002010B5074833F082FBAA
:1006A0000022064C064823681A7325F07FFC0122BD
:1006B000236883F85A2010BDA02305089C4300201E
:1006C00098240508F7B55D4F3B6893F85A300BB98D
:1006D000FFF7E2FF5A4833F065FB00223B6893F8CE
:1006E000581083F85A2093F82A25914205D193F89F
:1006F000592093F829359A424AD0524833F052FB98
:100700006FF000433C68C4E90C330233C4E90E3394
:100710000023B4F9F066B342226BA16B656B73DB07
:10072000E36B12111B1109112D112263E363A16305
:100730006563891A4FF0A0705D1BFFF777FD2946AE
:1007400006464FF45000FFF771FD3F4A864213689A
:10075000A8BF0646013313604FF4D0034BF2333188
:10076000636430462664FFF761FDB0F5D00FD4BF57
:10077000014631464FF480302165FFF757FD94F86C
:100780002A35606584F8583094F8293584F8593052
:100790002E4833F007FB3C684FF0A070237B616D5F
:1007A00043F0010323736FF00043A3640023C4E903
:1007B0000433019120F0ACFC0199A06205464FF48E
:1007C000500020F0A5FCB82294F84635E06202FB08
:1007D0000343D3F82C3205EBD5755A6900EBD07082
:1007E0009B696D104010C0EB2310C5EB2215E06132
:1007F000A561FFF73FFD164825F0D8FB154803B06B
:10080000BDE8F04033F0CEBAD4F8DC0600EBC30C00
:1008100050F83300904207DA2063DCF80420AA4243
:1008200006DA6263013376E78842C8BFA063F4E763
:10083000E16B8A42C8BFE263F4E700BF9C4300203B
:10084000AC230508B923050878430020CA2305080E
:1008500088240508DF23050810B55B4A03461468A1
:100860000078227B12F001010BD1002840F0AA8011
:100870005A68564B1B689A4202D1FFF723FF0120AA
:1008800010BD002875D15968514B1B688B4208D1A7
:100890001207F5D44FF48020616D20F039FC2061FF
:1008A000EDE74C4B1B688B4208D11307E8D44FF49B
:1008B0008020616D20F02CFC4042F0E7464B1B6825
:1008C0008B4208D11107DBD44FF48020616D20F0FA
:1008D0001FFC6061D3E7414B1B688B4208D11207B4
:1008E000CED44FF48020616D20F012FC4042F0E73E
:1008F000364B1B688B4208D1930702D5FFF7CCFE1D
:10090000BDE742F00E002073B9E7354B1B688B4200
:100910001BD13448B4F832350068034113F00100AC
:1009200013D06FF00043B82182F00802A3642E4B6D
:1009300012F0080F22732D4A08BF1A4694F8463564
:1009400001FB0344C4F8AC229AE7294B1B688B4295
:1009500006D14FF6FA23E36503F6242323668EE7D8
:10096000244B1B688B422DD1234BE3654FF6FA23B2
:10097000F4E7012826D116495B680968994204D139
:1009800012F008001ED120617AE7124909689942E5
:10099000F6D011490968994204D112F0080011D12A
:1009A00060616DE70D4909689942F6D0104A1268F6
:1009B0009A4203D00F4A12689A4203D14FF480330F
:1009C000C4E9173300205BE79C43002080470508FB
:1009D000904705088C470508944705088447050893
:1009E00088470508B847050808240508F9230508BD
:1009F0009C470508984705081E0501002DE9F74F9B
:100A0000374E3468237BDA0766D51B073BD5B822FF
:100A100094F8463502FB0343D3F82C32D3E905871B
:100A2000A36C434502D1E36C9F422CD0236D4FEA67
:100A300028101946019320F06BFBDFF8A8A0D4F82A
:100A400054B000EA0A00594620F062FBA56A019BF7
:100A500005EBD572A0EB62091946C4F8189038115D
:100A600020F056FB594600EA0A0020F051FBE36AE9
:100A7000C4E9128703EBD372A0EB62004D44034438
:100A8000E06125626362236EB3F5803F1AD0E16DA9
:100A9000206D20F03DFB0146054620654FF4803077
:100AA000FFF7C4FB216C60658D4206DA4FF480309D
:100AB0002165FFF7BBFB606502E0616C8D42F5DCF0
:100AC000FFF71AFC33681A690AB95B6923B103B0EE
:100AD000BDE8F04FFFF7CEBB03B0BDE8F08F00BF1D
:100AE0009C4300200000FFFF2DE9F04FB64D89B078
:100AF0002B68197BCC0740F1E78111F0020107D187
:100B0000F7234FF4A07200930846D02326F07EFE10
:100B100029680B7BD80632D58A69D1F83437D31AC5
:100B2000C3F31204002C4BD05B42C3F3120358BF33
:100B30005C42C4F5002414448E6ACB6A1644CA6928
:100B4000134405920793A6423CDC2968CA69D1F890
:100B50003837D31AC3F31204002C3CD05B42C3F3E2
:100B6000120358BF5C42C4F500241444CD6A8B6A5A
:100B700015448A69134404920693A5422DDC00278C
:100B8000DFF84482D8F80030B3F9FA2697422DDB1B
:100B900093F83025002A40F06D81B82193F846255E
:100BA00001FB0233D3F82C12D1E90523488CD02164
:100BB0001B111211000409B0BDE8F04FFFF720BD72
:100BC0001446B9E7682104A804940694FFF7FAFBD9
:100BD00004F50024B7E71446C8E7682104A8059483
:100BE0000794FFF7EFFB04F50024C6E738224FF621
:100BF000FF7402FB07F9D3F8FC16D3F8E46601EBA7
:100C00000902D08B51F80910A04218BF0C244FEAFA
:100C100021110491516808BF00254FEA2111059167
:100C200091684FEA21110691D1684FEA211107918D
:100C3000D3F8101718BF04FB00104FF00C0418BFB6
:100C4000B0F90A50908B18BF06EB051504FB001194
:100C50001469B1F90AB0518E2246002CB8BF04F1D4
:100C60001F020291D3F80417521151F82220039267
:100C70001A7B520725D54FF0B80A93F8462504A8E9
:100C80000AFB0233D3F82C325A8C99691204009172
:100C90005B69C2F1804205A9FFF75EFBD8F800301E
:100CA00006A893F846250AFB0233D3F82C325A8C57
:100CB0009969120400915B69C2F1804207A9FFF7AC
:100CC0004BFB0123D8F800204FEA671CD2F8080735
:100CD00007F01F0150F82C0003FA01F1014200F067
:100CE000B780D2F8FC164944098E080669D48906F3
:100CF00006EB0B1600F1ED80614201F01F0104F0DC
:100D00001F0458BF4C4203FA04F4039B02991C428F
:100D100014BF012300234B43A3F56051B1F5806F4D
:100D200013D211F4E07FC1F3821369D0072B67D08F
:100D30000322013BB3FBF2F202EB42029B1A022BAD
:100D400044D0012B39D0AF2138E0222B1AD8192BEF
:100D500030D9A3F11A0108291CD801A050F821F0BC
:100D6000BB0D0008CD0D0008470D0008950D0008CB
:100D7000950D0008950D0008BB0D0008470D0008F3
:100D8000CD0D0008872B11D8852BDCD8632B14D010
:100D9000852B12D0002D00F09F80272B04D0612BD3
:100DA00002D07D3B012B15D8772107E0A3F1880104
:100DB00001290BD9002DF4D18EE0CC2104A8FFF736
:100DC00001FB0137DEE600BF9C430020E721F5E789
:100DD0001721F3E7D2F8E826B5F90E30190102EB36
:100DE0000313515EB3F90230994209D0B6F90E30BF
:100DF000190102EB0313B3F90230525E9A4201D19A
:100E0000D021DBE730461AF0E3FF00286AD12846FC
:100E10001AF0DEFF002865D1D8F80030D3F8E816C4
:100E2000B5F90E30180101EB0312B6F90E30085E69
:100E30001C0101EB0313095F884201D03721BDE794
:100E4000B2F90220B3F902309A42BAD0D721B5E7FD
:100E5000B82192F8463501FB0323B3F96232002B27
:100E6000AFD0D2F8FC369944B9F830301B06A8D47C
:100E70006821A3E70024B8251B4ED8F8003093F86A
:100E80002C2552B193F843253AB993F8462505FB32
:100E900004F112FB05F2914213D11A1992F83F2581
:100EA0007AB105FB0433D3F82C22B3F95E32508CAF
:100EB000000463B9A15DD2E905231B111211FFF7EC
:100EC0009FFB0134042CD8D109B0BDE8F08FF62186
:100ED000F1E7002D7FF47CAF30461AF079FF00284F
:100EE0003FF476AFFC2169E7A82405080022074BF0
:100EF0001B6883F83F25A3F8402583F8422593F823
:100F000046251344012283F83F2570479C43002067
:100F100070B503F0C1F80826154D2B68D3F8684169
:100F2000C3F86801041B04B970BD03F0E9F8286830
:100F3000013CD0F86431D0F870219A1A062AF3DC0B
:100F4000594201F0070190F8462503F0070358BF06
:100F50004B420C3316FB023300EBC300043001F0AC
:100F6000A5FC2A68D2F864310133C2F86431DAE7AB
:100F70009C4300202DE9F04F00256D4B6D4C5D60CA
:100F8000B7B02EF035FDFFF7C3FF236893F8302587
:100F9000002A00F0C88093F88721002A71D04FF012
:100FA0000109D3F86471CA46B84623682946013559
:100FB0002B4493F83F354BB30AFA05F343EA09098A
:100FC00001A85FFA89F930F057FC002854D1029A41
:100FD0000DF1040C13464FEAC50E0399981A81428D
:100FE000D4F800B006DDDBF870010CF1080C073016
:100FF00083422FDDBA4203DA17EA220738BF1746C9
:10100000434503DA18EA230838BF9846032DCCD1AC
:101010002368494AC3F86C8113684345474B05D19F
:101020001968B94202D1B9F1010F10D00025C2F8F8
:1010300000801F602368284601352B4493F83F3514
:101040001BB13A46414630F0E9FA032DF2D137B0F0
:10105000BDE8F08F584200F0070003F0070158BFC9
:1010600041420EEB01060BEBC6066436DCE90101DA
:10107000013386E80300B0E72368D3F86C71B84603
:10108000C4E701A830F0BCFB68B12368D3F8640161
:10109000D3F86C31C01A20EAE0700828A8BF0820F5
:1010A00030F038FBD3E7DDE9023213442268D2F88E
:1010B0006451AB420ADD92F827654EB930F094FDD9
:1010C000236883F8306500F0EDF92B4623EAE370DE
:1010D000266896F82725C6F86C01002AD5D10DF1AF
:1010E000100C00251CF8017B05ABFF0003EB020E82
:1010F000039B9D4203DB4032C02AF2D1C5E7029B2D
:101100002B44594201F0070103F0070358BF4B423B
:101110003B4406EBC3030EEBC501643303C9013541
:1011200083E80300E4E737B0BDE8F04F30F0EEBCF1
:10113000001000E09C43002000100020041000205C
:10114000054B1B6893F88A2122B193F885310BB9BE
:10115000FFF710BF704700BF9C4300202DE9F04708
:10116000304BADF5107DC3F800D02F4B10AA1A609C
:1011700002F092FF06468146DFF8B4802B4FD8F884
:101180000050DFF8B0A0451BC8F80000FFF7D8FFFB
:101190003B6893F83015D3F8702149B3D3F86C410C
:1011A000A41A25B902F078FFC8F80000851BA542F3
:1011B00003DB022CC8BF04F1FF34AC42A8BF2C46AD
:1011C000002C2ADC02F068FFA0EB0903012B044687
:1011D00005D99AF8003081460BB92FF049FFA41BBE
:1011E000042CD3D903F0F4FF0DF5107DBDE8F08792
:1011F000D3F86441A41AE3E73B6893F886310BB156
:1012000000F0E0F803F0E4FF02F0B6FB3A68013CBE
:10121000D2F870310133C2F87031002CECD1FFF7F5
:101220008FFFE1E7447300204C7300209C430020B3
:1012300074430020E629050838B504461D2024F033
:101240004BFB064B20461D6840F21A43A5F874314B
:1012500026F01CFFA5F8760138BD00BF9C43002096
:1012600070B5ADF5207D02F017FF134C461E6846A1
:1012700001F0CAF994F80B3CC3F1010384F80B3C6C
:1012800002F00AFF0546801BFAD0694601F0ECF92E
:10129000C6B202F0C7FF94F80D3C002BFBD194F8C6
:1012A0000B3CC3F1010384F80B3C16B10DF5207D16
:1012B00070BD2E46E4E700BF34E303202DE9F84378
:1012C00080460E460025134FDFF85490AE4201D8F9
:1012D000BDE8F883741BB4F5807F28BF4FF4807499
:1012E00049462246386831F0ABFD0B4A536B03F098
:1012F0000303032BFAD13968084B01F003011944A9
:1013000008EB050022464FF047FF3B682544234485
:101310003B60DBE748EF03200000045064EF03204C
:101320005CEF032010B50446422024F0D5FA204695
:1013300026F0ACFE024B1B68A3F8760110BD00BF7F
:101340009C43002038B5124D04462B68D3F8703109
:10135000022B1CDD03F0E4FDC8B92B6893F8273598
:1013600023B12046BDE8384001F05ABB204603F0C7
:101370006FF960B9204602F02DFE40B9204624F0F6
:1013800015FE20B92046FFF767FA0028E9D038BDDE
:101390009C4300200122024B1B6883F88621704782
:1013A0009C430020064B1A68B2F87431013B1BB213
:1013B000002BA2F8743101DAFFF7ECBF704700BFD1
:1013C0009C430020B8221B4B1B481B6893F8461512
:1013D00002FB0131002281F83022A3F83C2583F87A
:1013E000862140F28112A3F874214FF44072A3F8D1
:1013F000262593F8302593F88B112AB193F84325CD
:1014000012B983F884210BE093F884210132D2B21F
:1014100083F8842101EB820250F83220002AF0D0B8
:1014200093F8843101EB830300EBC30250F83330AF
:10143000506818479C430020A429050810B5164B96
:10144000ADF5107DC3F800D0144C154B10AA1A60EE
:1014500002F056FE2068D0F8643190F846155A42E2
:1014600002F0070203F0070358BF53420C3303EBAB
:10147000C10300EBC300043001F018FA236893F8AD
:1014800086310BB1FFF79EFF03F0A2FE02F074FA63
:101490000DF5107D10BD00BF447300209C4300205B
:1014A0004C73002008B5094832F07CFC0022084B40
:1014B00008481B6883F82625FF2283F88421FFF75C
:1014C00069FFBDE8084032F06DBC00BF8425050807
:1014D0009C430020922505082DE98048854D864CC7
:1014E0002B6889B0002B00F0C180844B1B68002B57
:1014F00000F0BC80DFF828B223F07E43042104A86A
:10150000CBF80030FFF7DAFE2E680C2126F07E4380
:1015100005A8CBF800302768FFF7D0FE04227849F1
:1015200005A84FF0F2FE0546002840F0BF80DDF828
:1015300018A074484FEA0A19514632F033FC2A4683
:1015400001214846704B28F05DFE8046079B4946C6
:101550001E4426F07E46CBF80060FFF7AFFE2E4615
:101560000AF1FF3308EB0901AB46A946AA4643F24C
:101570004C1C0393039B013317D1404628F0C2FE55
:10158000042387F88B310023BBF11D0F87F8453505
:1015900040F39580012E4FF00203D4BF00260126B0
:1015A00087F88B3187F8456555E051F8080C574BA3
:1015B00000F0FF1E9E45A1F110021AD111F804ECB3
:1015C000BEF1000F15D111F8071C342906D10AF11C
:1015D000010A039B1146013B0393CBE7332901D159
:1015E0000135F6E73229FBD03129F2D109F10109A1
:1015F000EFE744F24D13B2F808E09E4516D111F81A
:1016000006ECBEF1500F11D111F803ECBEF1000F42
:101610000CD111F8050C0BF1010B3328D9D111F8BD
:10162000041C31390129D4D80136D2E7384B98420D
:1016300028D190896045CCD111F8021C0029C8D16D
:101640000223226887F88B3182F88C3182F88B3143
:10165000404628F057FE236893F88B21022A3DD09C
:1016600001D9032A3CD1002283F88C21236893F806
:101670008B21032A00F25282DFE812F05400440268
:1016800046025202234B9842A3D190896045A0D1D3
:1016900011F8021C00299CD102220321236887F83B
:1016A0008B2183F88C1183F88B21D1E700261A480F
:1016B00032F078FBB346B1463546B24660E7BAF140
:1016C000080F03DD032387F88B31C4E7112D01DDFB
:1016D0000123F8E7B9F1080FBDDDF4E70122C3E704
:1016E00004218A4283F88C11C0D10C4832F05AFB95
:1016F000FEE700BF081000209C4300200C100020D3
:101700002F260508342605084526050845004D0006
:101710004D5552415746414C602605088026050824
:1017200048EF0320C24DC349C34832F03BFB294672
:10173000C24832F037FBC24832F034FBC14832F0C5
:1017400031FBC14832F02EFBC04832F02BFBC048C1
:1017500032F028FBBF4832F025FBBF4832F022FBB5
:1017600001F07CFEBD4832F01DFBFFF7BFFBBC481B
:1017700032F018FB26F0E0FC26F082FDB94832F08A
:1017800011FB23F07FFCB84832F00CFB04F0D2F9D7
:10179000B64832F007FB26F019FFB54832F002FBDD
:1017A00019F0E2FCB34832F0FDFA02F08DFCB248C9
:1017B00032F0F8FA2368002603F5005393F8311944
:1017C00093F8300923F060FFAC4832F0EBFA02F0F6
:1017D000DFFAAB4832F0E6FA25F01EF8A94832F0FD
:1017E000E1FA01F0A9FDFF21236803F5005282F818
:1017F000331983F88961FFF755FEA34826F046FCAC
:10180000256800B22880013007D1A04826F03EFCB0
:1018100000B2421C14BF28802E809D4826F036FC62
:1018200000B26880013004BF05F50053B3F82439D5
:10183000B5F9001008BF6B80B5F90220954832F069
:10184000B1FA23680022B3F90250B3F90030012144
:10185000ED1AED00904B284628F0D4FC064623688C
:10186000DFF86C82B3F900702368B3F902309F424D
:10187000C0F25A812946894F894832F093FA0022F2
:10188000294601233046D7F8008026F0F5F9C8F83C
:101890004000304628F036FD26F0FEFA814A3860D6
:1018A0008149506A536A1B1A8B42FBD900220121DD
:1018B00023687E4883F8892183F88A1132F05AF927
:1018C0007B4E06F5143700237A4A13607A4A136078
:1018D0007A4A136072B64FF4963297F80B3C02FBCB
:1018E000036303F5843343F804D99D4662B62FF0B1
:1018F000BFFB236893F88531002B00F03581FFF79B
:101900009DFD2368D3F870210132C3F87021D3F80C
:1019100064210132C3F8642172B64FF4963297F80D
:101920000B3C02FB036303F58433D3F800D062B6AB
:10193000B821236893F8472501FB0233D3F82C0222
:1019400008B124F0BFF902F051FC00285FD02368F1
:1019500093F8279593F98281C14501D000F032FEBA
:101960004FF4963197F80B3C226801FB036302F5B4
:10197000005103F20443C1F8D8385149514D0B606E
:10198000CF2300212B80504B198092F82735002B54
:1019900000F00481EF2392F983012B8008B925F030
:1019A00033FF226892F82735022B00F0E080032BEA
:1019B00000F0E080012B01D128F050FA236893F960
:1019C000272583F8822183F8832193F83C35ABB136
:1019D0003E4826F05BFB23F0B1FB05463B4826F072
:1019E00055FBC5F5A0720346042102EBD270062216
:1019F0004010CDE90021002225F0DEFE03F0FAFFC1
:101A0000FFF786FAC14540F0F08002F00BFC226837
:101A1000D2F87C310133C2F87C3102F035FB226808
:101A20002149D2F87831C31A8B427FF64CAF51E08E
:101A3000D6250508A0260508AC260508C0260508F9
:101A4000CE260508ED260508FD26050812270508FF
:101A50002A270508402705088D270508D5270508EA
:101A6000E6270508FF2705081E2805083828050869
:101A7000532805087228050892280508AE2805088D
:101A8000C9280508E5280508092905080E290508BB
:101A9000142905081A2905083A2905086083002039
:101AA00062290508008004503F420F000000015BDE
:101AB0003493012078430020508300207C43002091
:101AC000C0800020BC800020BA800020902905083A
:101AD00048EF0320D2F87C11464D694307EE901A77
:101AE000B8EE677A07EE903AF8EE677AC7EE276AA3
:101AF000FDEEE66A16EE903AA2F880310023C2E9C4
:101B00005E03E0E63C4D0EE693F88C31022B09D0E3
:101B10003A4D3B4A032B08BF154604E6394D02E611
:101B2000394D00E6394DFEE5384626F0A5FB20F09C
:101B30007E400821C8F8000005A8FFF7BFFB236816
:101B4000BDF81610B3F90030FB1A06EBC302518042
:101B5000BDF8181001379180BDF81A10D180BDF87A
:101B6000142026F833207FE6FFF7F8FAD4E600F0D9
:101B70001BFC23E7B2F97631002B3FF41FAF92F83C
:101B8000D125002A0CBF04220C22019206220092C9
:101B900000221146104625F00FFE0FE7D2F8701113
:101BA000D2F8183599423FF409AF02F08DF9206858
:101BB000037B03F00303012B08D0B82290F84735CC
:101BC00002FB030000F50B7021F022FE23681B7B53
:101BD000DB0701D5FEF788FF02F086F9EF2300212D
:101BE00001202B8024F054FBE8E600F0F3FCFFF723
:101BF00037FB0CE780969800C6250508FD250508EB
:101C000013260508A8250508B4250508E5250508B7
:101C1000094B1B6893F8AF1141B903F5005292F8D4
:101C2000270983F8AF0120B182F827199FED030A35
:101C30007047B0EE080A70479C4300200AD7233C47
:101C40004FF4007210B5544C2368A3F826251A7B74
:101C500003F5005122F001021A73002283F8AF212C
:101C600081F8272993F88B310121022B26D002D944
:101C7000032B40F088801F2023F006FE236893F892
:101C80002925013A032A28D8DFE802F002090E13B9
:101C9000424AC3F8A821424AC3F8A4211DE0414AA0
:101CA000C3F8A821404AF7E7404AC3F8A821404AB0
:101CB000F2E7404AC3F8A8213F4AEDE7412023F06C
:101CC000E3FD236893F82A25142A36D00CD80B2A72
:101CD00027D00F2A49D0062A14D00022236883F87F
:101CE000AE21A3F8AC2110BD1E2A32D01F2AF4D198
:101CF00093F88C11314A0229C3F8A82141D0304A07
:101D0000304808E093F88C112F4A0229C3F8A82123
:101D100005D02E4A2E48032918BF0246BCE72D4A9B
:101D2000BAE793F88C112C4A0229C3F8A82102D0F3
:101D30002A4A2B48EFE72B4AAEE793F88C112A4A40
:101D40000229C3F8A82102D0284A2948E3E7294AF2
:101D5000A2E793F88C11284A0229C3F8A82102D0DF
:101D6000264A2748D7E7274A96E793F88C11264A50
:101D70000229C3F8A82102D0244A2548CBE7254AE6
:101D80008AE7254A88E7412023F07EFD234A23681D
:101D9000C3F8A8210E4A7FE79C430020933E050824
:101DA0009C3E0508C63F0508CE3F050822410508B0
:101DB0002A4105085942050861420508E243050821
:101DC000CD3D0508383E0508BA4305086D2B0508CA
:101DD0001F2D0508E7290508C2430508C72F050878
:101DE00089300508902E0508CA43050847330508C1
:101DF0009034050811320508D24305084B37050811
:101E000018390508C9350508DA430508263B0508D1
:101E1000C63B0508783A05086B3C0508EA43050807
:101E20001449154BB1F94200144910B41B6800EB7A
:101E3000400401EB8404C3F898410C24FF2204FB06
:101E40000011B1F9021083F88221C3F89411002225
:101E5000022183F8B22183F8AE1183F8B121012168
:101E60003F20C3E967225DF8044BC3F8902123F0BB
:101E70000BBD00BF585805089C430020EC7D0508A9
:101E8000F8B5A64D2A68D2F89431013B002BC2F870
:101E9000943100F3A980D2F89801A14CB0F9023036
:101EA000013303D0B0F90810002977D10020D2F80F
:101EB00090319C4E591C56F8313082F8B201834261
:101EC00018BF0B46C2F890313C2206EBC303964F75
:101ED0001B7902FB0373B3F9081009B123F0C8FEA4
:101EE0003C212A68D2F8903106EBC306337901FB16
:101EF0000377B7F9063003EB430304EB8303C2F81F
:101F000098310023C2F89C312A68D2F89C310C2BFE
:101F100040F0FB800123D2F8901182F8B131814B5F
:101F2000D2F8A06103EBC10318793C237E4903FB7F
:101F30000013002E00F0E680B3F9143003EB4303E6
:101F400004EB830386F00107A342C2F89831C2F87C
:101F5000A0710ED13C2303FB0011012E14BFB1F977
:101F60001430B1F9163003EB430304EB8303C2F8DA
:101F700098313C20D2F890116A4BD2F8982103EBAB
:101F8000C1031979684B00FB0133B3F9063003EB49
:101F9000430304EB83039A421CD103E004F5E76694
:101FA000B04222D100233C202A68D2F8901182F856
:101FB000B131C2F89C315B4B03EBC10319795A4B29
:101FC00000FB0133B3F9063003EB430304EB830456
:101FD000C2F898412B68D3F89821B2F90220511C1D
:101FE00008BF0F22C3F89421F8BD01EB410004EBB8
:101FF0008000C2F89801D2F89C01B1F5D27F00F1BF
:102000000100C2F89C012CDAB1F5D07F74DCB1F587
:10201000807F66D008DCB92968D0DA296CD09A298B
:102020007FF472AF04215DE0B1F5A97F60D005DCDB
:10203000B1F5A87F7FF468AF382153E0B1F5AA7FEE
:1020400058D06FF4BC70014489B206293FF65CAFEA
:10205000012303FA01F111F0490F3FF455AF1021AC
:1020600040E040F2692291421FDCB1F51A7F43DA69
:10207000B1F5F37F42D005DCB1F5E37F7FF444AFE7
:1020800037212FE040F24E22914228D03FF73CAF5B
:1020900040F21A229142E2D040F237229142DED041
:1020A00040F2F9129142DAD02EE740F2AF2291428B
:1020B0000AD0B1F52C7F09DAB1F5227F20D040F2A9
:1020C000AD2291427FF420AF0E210BE040F2B1220D
:1020D0009142F9D040F2C62291427FF415AF3321EC
:1020E00000E03621002023F0C3FD0DE70121F9E7D0
:1020F0003521F7E76B21F5E70221F3E73421F1E71A
:102100000821EFE7B3F9163018E792F8B11100296A
:102110003FF460AF182B3FF445AF2AE79C43002003
:10212000EC7D0508E44405085858050810B5344C02
:102130002DED028B27F024FE2368B3F8AC21013289
:10214000A3F8AC2193F8AE31022B01D1FFF798FE32
:10215000236893F8AE31002B4ED1FFF759FD246868
:10216000F0EE408AB4F9AC31D4F8A40108EE103A8C
:102170004FF0C3F807EE900ADFED226AB8EEE77A77
:10218000DFED217A94F8AF31B8EEC88A002B46FE15
:10219000A77A47EE287AB4EEE78AF1EE10FA05DC6A
:1021A00053B304F5005292F827292AB394F88B21EF
:1021B000022A13D00023A4F8AC31012384F8AE31F5
:1021C000FF2384F8823194F82935032B14D1BDEC18
:1021D000028BBDE810401E2023F07EBB63B194F853
:1021E0002A351E2B05D1BDEC028BBDE81040FFF750
:1021F00017BE082384F82635BDEC028B10BD00BF46
:102200009C43002000007A4300007A4470B50378B4
:1022100073BB184B1B6893F8B20108B1012070BD65
:102220003C25D3F89011144A012402EBC102117924
:10223000124A83F8B24105FB0122B2F91850104945
:1022400005EB450601EB8606C3F898610C2606FBF4
:102250000511B1F90210C3F89C01C3F89411B2F949
:102260001C1083F8B1010029D8D023F001FDD5E777
:102270000020D4E79C430020E44405085858050892
:10228000EC7D0508044B1B6893F8AE31022B01D19D
:10229000FFF7BCBF002070479C4300202DE9F743A7
:1022A0003B4825F0F3FE06220421CDE9002100225F
:1022B000384E03461146104625F07EFA336800205A
:1022C000D3F89021344B354F53F832503C682A46AE
:1022D000DFF8D0C012B112F8013B6BBB00EBD0703D
:1022E0004410DFF8C080C4F1A004002D35D130685F
:1022F0002B4BD0F898211B6811781B6A527803EB9E
:10230000C103596802F07F0202EBC20201EB4204F2
:1023100031F91230227CB0F9400802F00102043297
:102320000192062203440092AA210022A02025F057
:1023300043FA03B0BDE8F08313F80C1001F0030179
:10234000022908BF203B213B3F2B97BF54F8233085
:102350000430B3F90030C018BCE715F8013B002B7E
:10236000C5D013F8082002F00302022A08BF203B60
:10237000213B3F2B01D90434B7E73A68204652F895
:1023800023209021B2F9009022F042F84C44ACE7AF
:10239000F14305089C430020E4440508D86C002064
:1023A0006083002035D207082DE9F047794D86B0CB
:1023B0002B6893F8AE21022A04D106B0BDE8F0479D
:1023C000FFF76CBF002A47D1D3F8A80124F064FEC0
:1023D0002B680A26D3F8A451B3F9AC3137460A3B2F
:1023E00007EE903AFFF714FCF8EEE77A87EE807A72
:1023F000BDEEC77A17EE103A002BACBF05EB030811
:1024000005F10008DFF8B491DFF8B4A1454502D129
:1024100006B0BDE8F08715F8013B002BF8D00A2B79
:1024200002D10B361F46F1E713F8092002F0030230
:10243000022A08BF203B213B3F2B01D93B1DF1E77E
:10244000DAF80020314652F823203846B2F900402D
:1024500021F0DEFF3B19E5E793F82925013A032A2D
:10246000D6D8DFE802F002131A9593F88B310424D2
:10247000032B0CBF4848494825F008FE0346019449
:10248000062200920022114610467EE0444825F0C4
:10249000FDFD042203460192F2E7B3F9AC41E63CAC
:1024A00004EBD4746410644204F5A076002E29DC99
:1024B0003C4825F0EBFD04240622CDE9002400224F
:1024C00003461146104625F077F940F269422B6821
:1024D000B3F9AC4194429BDD40F29B4294422DDC27
:1024E000314825F0D3FD0622034604204421CDE9DE
:1024F000002000226C2025F05FF900222B6883F871
:10250000B02185E7294825F0C1FD04270022B6F552
:10251000A07F4FF0060603461146CDE90067D1DAE9
:10252000604225F049F91F4825F0B0FD002203461E
:102530001F481146CDE90067001BC4E740F2BE42C8
:102540009442DFBF0522A4F29C4424B2B4FBF2F40F
:10255000C8BF062493F8B031A34206DA0121002057
:1025600023F086FB2B6883F8B0412246114903A86B
:1025700031F0BCFA03A825F089FD062204210346A8
:10258000CDE900216C200022442125F015F93FE718
:1025900009487CE79C430020FA43050801440508EC
:1025A000074405087A4505081044050874450508E0
:1025B000C0FEFFFF154405081B44050835D2070877
:1025C000D86C00200020024B1B68C3F8B401704790
:1025D0009C4300200020024B1B68C3F8B4017047E5
:1025E0009C43002010B572B6064CC4F800D0A54636
:1025F00081B062B62EF03CFD72B6D4F800D062B65F
:1026000010BD00BF544300202DE9F041044603F003
:10261000D7FA03264FF6F1774FF00008424202F056
:102620000F0200F00F0358BF53425B42238004F2B5
:102630007E2503F0C5FA90FBF6F303EB430334F970
:10264000022BC31A013B13441BB2002B05DDA4F877
:102650000080AC42EDD1BDE8F08113F1100F14BF42
:1026600023802780F5E700002DE9F84F89460646CC
:102670000125344F07F5143816B92846BDE8F88F00
:10268000FFF7B0FF00214FF4963E4FF4A07CA9F174
:10269000020434F9022F002A08DA013222800025D0
:1026A0000131B1F5A07FF4D1013EE5E7EF2AF7DC77
:1026B0000F2ACEBF0923531C1BB2C2F1F0051A44E6
:1026C000EF2AC8BF2B462048ED1A4543002098F852
:1026D0000B2CC3F1EF0A0EFB021202F204423A4441
:1026E0000CFB0A2A02F59532C032854222D198F8B5
:1026F0000B0CB4F90050C0F101020EFB02120EFBEC
:10270000001002F2044200F2044015FB0C2215FBFB
:102710000C0500200CFB03FA3A443D4412F800B0CB
:1027200005F800B000F5A0708245F7D12288134467
:102730002380B4E71AF800B002F800B0A0F5A0704A
:10274000D3E700BF34930120C0FEFFFFF8B5214D51
:102750002A6892F9823113B9FF2382F8823100236B
:10276000B82002271C4682F827352968CA1892F833
:102770003F253AB100FB031292F83062012E08BFE8
:1027800082F8307200FB03F2013302F26E228E18DF
:10279000042B8C507460E8D10F4B28681C800F4BC1
:1027A00090F82A151C800E4B00221C8090F92835C9
:1027B00090F8290517F04AFD2B6883F82645A3F801
:1027C000324583F83C4523F087FEBDE8F84001F030
:1027D00011BB00BF9C4300202C10002034100020AF
:1027E0002410002038B520F07E4501220446094916
:1027F000284630F025FB084A536B03F00303032BF4
:10280000FAD10648064B04F0030401350444207D48
:102810001D6038BD5CEF03200000045050EF032022
:1028200048EF03201FB520F07E40CDE90221019042
:1028300030F044FADDE90221019805B05DF804EBBF
:1028400030F094BA2DE9F84380460E460025134F28
:10285000DFF85490741BB4F5807F28BF4FF4807468
:1028600049462246386830F0EBFA0D4A536B03F0C4
:102870000303032BFAD139680A4B01F00301194411
:1028800008EB050022464EF087FC3B6825442344B4
:10289000AE423B60DED8BDE8F88300BF48EF0320BE
:1028A0000000045064EF03205CEF0320F8B5002320
:1028B000564F0360436004463868B0F8322590F8FC
:1028C000C935C2F3C001594012F4407300F088804A
:1028D00090F834350133DBB2062B80F8343540F202
:1028E0008380062380F834350B46960541BF484D5A
:1028F00055F823506D426580D50505D5444D55F8F2
:10290000233065882B44638012F040030EBF1D46C0
:10291000404B53F82150160642BF3E4B53F821302E
:10292000ED1A12F400661CBF3B4B53F821605305AF
:1029300042BF394B53F82130F61A530744BF0123E5
:10294000E371110742BFE37943F00203E371D30659
:102950004DD5B82290F8463502FB030000F50B7008
:1029600016F06CFF0A281FBFE37943F0040343EA23
:10297000C000E0716FF031039E42B8BF1E46322E98
:10298000A8BF3226002D3ED0AB42B8BF2B46322B1B
:10299000A8BF32233A685BB2D2F814255AB91F494E
:1029A0000A6801320A60D20605D143F00103022B06
:1029B00001DD023B5BB222781344237063781E442E
:1029C000B4F9023066704BB13A68D2F814252AB1D6
:1029D00043F00103022BC4BF023B1BB26380F8BD6E
:1029E00080F83435022380E73FF47EAFFAE79106A2
:1029F000C0D5B82290F8463502FB030000F50B70F5
:102A000016F046FFAEE72B46D5E700BF9C430020FB
:102A1000E04605086C470508604805089443002017
:102A200038B5244D04462B6893F8261593F82725CE
:102A3000D1B993F8431599B9032A15D193F83C25D8
:102A400092070FD41B7BDB070CD4237823B1023B06
:102A5000012B07D863682BB102F0F0F8012038BDD4
:102A6000032AEBD00020FAE7022A0FD023789BB18B
:102A7000012BF7D162680F2AF4DC29689340B1F882
:102A8000322522EA0303A1F83235EBE72046FFF7AF
:102A9000F9FB0028EAD0E1E763680F2BDEDC0120B8
:102AA0002A6800FA03F3B2F832150B43A2F8323564
:102AB000D5E700BF9C4300202DE9F0470F46B82121
:102AC0005A4E8046326801FB0023D3F82C02D0B95D
:102AD000034602F50B7212E001FB03F01058B7F940
:102AE00000504469B4EB054F08D1B7F90240806942
:102AF000B0EB044F02D10020BDE8F087013343451D
:102B0000EADB0120F8E7B7F90040B7F902502404E6
:102B10002D042A46214613F073FF0028EBD0DFF87E
:102B20002C91DFF82CA199F80030072B09D903F07C
:102B300007033AF8130010B1830043F0005015F07A
:102B40000BFDB822306899F8003002FB0800D0F87D
:102B50002C2203F00701920801332AF811202046A5
:102B6000294689F800301EF0DBFA2D23B7F904104E
:102B7000804691FBF3F18902B1F5A05F4CD01BDCDC
:102B8000B1F5805F22D011DCB1F5006F03D00ADC13
:102B900021F4806353B9264B1B6853F82170254BF1
:102BA00053F8211017E0B1F5406FF4D0224831F00E
:102BB000F9F800210F460EE0B1F5C05F31D0B1F554
:102BC000E05FF3D11D4B1F681D4B03E01D4B03F568
:102BD00000521768196814203268B8F80030D2F82B
:102BE000E826C3F308031B01D25E00FB0151272333
:102BF000520300FB074015F09FFBB821336893F8A0
:102C0000462501FB0233D3F83C32012B3FF479AF68
:102C1000232123F02DF874E7094B1F68A3F5005317
:102C2000D8E7044B1F68084BD4E700BF9C43002043
:102C3000483306084C330608804505084C4306080F
:102C40004C0307084CD306084CF3060890430020B9
:102C5000804300201A4B2DE9F3411B68194F1A4A93
:102C6000DB1B5E101E2B044602FB06F603DC31461E
:102C7000164831F097F84FF014080A2502F090FF3B
:102C8000014690FBF6F000FB161105FB0171204692
:102C90000191FFF711FF019938B1631CCB802046E9
:102CA00002B0BDE8F04115F001BFB8F10108E5D16F
:102CB0006543074B05F2447519682944EFE700BFE7
:102CC000587500205C750020CDCCCCCCA245050801
:102CD0009C430020B8232DE9F04385B005466F469C
:102CE00043432B4E03F26E29D6F800C00CEB0902C9
:102CF00002F1100E3C4610685168083203C4724558
:102D00002746F7D1B822554303F50B700CEB0504A9
:102D100000216044B4F9A682D4F8A8724EF063FA98
:102D20006B4603CB40F20113326842F80900306869
:102D300002EB090C0544CCF80410A5F8A682C5F8EE
:102D4000A872A4F89C32002384F83032114B4FF063
:102D500001121B68C4F87822A4F854320123A4F8A5
:102D60007632A4F87C320C4B1B68A4F88C320B4BE7
:102D70001A68A4F894225A68A4F896229A68DB6824
:102D8000A4F89822A4F89A3205B0BDE8F08300BFF9
:102D90009C430020000B0608FC0A0608040B0608EA
:102DA0002DE9F0411C4F0446396891F8303523B9BC
:102DB000012381F82635BDE8F081B823FF2203FB0B
:102DC0000013D3F82C3283F82C2091F82C351BB14A
:102DD000BDE8F041FFF73EBF0A25454305F24475C3
:102DE0002944FFF769FE10B1396829440BE040F22D
:102DF000447640F26C78396820463144FFF75CFE37
:102E000030B1396831442046BDE8F04115F04EBE7E
:102E10000A364645EFD1E7E79C43002008B522F08B
:102E200081FD0022034B1B6883F83A25062283F8B4
:102E3000262508BD9C43002008B522F073FD094BF0
:102E40001B6893F88B21022A0AD193F84525003A92
:102E500018BF012283F83A25062283F8262508BDEB
:102E60000122F7E79C43002000222DE9F84340F2BD
:102E70005A201146B826854C236883F826252368F6
:102E80009D1895F83F5585B11D1819506960A960C6
:102E900000F10C0559515F1906FB0233B980C3F8E4
:102EA0002C12C3F8B812C3F8B0120132042A00F190
:102EB000B800E4D123681B7BDB0701D5FDF7ECFBF1
:102EC000236893F88B0193F82A2502280AD0092A4F
:102ED00008D1012183F8E01283F8981383F8501485
:102EE00083F80815B82193F8467593F8295501FB26
:102EF000073191F8E012561E83F8C511022805F13A
:102F0000FF3193F83AC583F8C41183F8C66140F0E5
:102F10009E80BCF1000F00F094800F2A00F08D809D
:102F20001F2A00F0AA80B3F81C150228A3F8C811C4
:102F3000B3F8201508BF564AA3F8CA11B3F82215F2
:102F400008BF52F82620A3F8CC114FF00001A3F8D7
:102F5000CE111EBF0A2101FB05224E494FF0140C71
:102F600018BF51F8222023214FF0B8094A4300210D
:102F7000A3F8D471C3F8D02109FB01F523680CFB39
:102F800001F05E1896F83F6503EB050EBEF8A682C9
:102F900006F001061A1846EA4806A2F8DC61BEF9F6
:102FA000A862D3F83078C2F8E061BEF8AA620131B5
:102FB00082F8D861D2F8D861042967F31F26C2F8D5
:102FC000D86100F5F27205F26E2003EB0005185887
:102FD00003EB0206985068687060CDD12320236807
:102FE000D3F8302892FBF0F1D3F8102500FB012232
:102FF000C3F81025C3F82822012283F827251A7B5D
:1030000022F001021A73244A12787AB193F8432508
:1030100012B993F83E254AB193F88B1193F82A25FB
:1030200002292DD111461D4830F0BCFE2068BDE8B4
:10303000F84300F5E27026F057BF1E2183F8C71150
:1030400071E7A2F11F01012917D80F21F6E7BCF1A2
:10305000000F01D00821F1E7092A0ED103293FF61C
:1030600062AFDFE801F0020406080321E6E705216C
:10307000E4E70621E2E70221E0E783F8C72152E70F
:1030800093F82915064830F08DFECFE79C430020C9
:10309000EC460508C0470508E4290508C7450508AA
:1030A000DA4505080822144B1B6893F83A1583F893
:1030B000262539B1B82093F8462500FB02320120BD
:1030C00082F8E00293F88B0193F82A2502280CD1AC
:1030D0001F2A0FD801239340084A1A401AB913F047
:1030E000802F07D031B1FEF7ABBD082A04BF0722FD
:1030F00083F82625704700BF9C43002040081040FD
:10310000FF2138B50024094D2B6803F5005282F8E1
:10311000331993F8C72183F82745013283F82A250C
:10312000FFF714FB2B6883F8264538BD9C4300202D
:103130004FF496322DE9F843214C224D04F5143317
:1031400093F80B3C204F02FB03442FF051FD1F4B23
:10315000A0F5005004F2044420F07E4018604FF4C3
:1031600040712046FFF76EFBDFF86880DFF868905B
:1031700004F540762368012B0AD0284614494EF006
:10318000B4F86034B44205F10805F3D1BDE8F88322
:103190003B6893F88B31022B06D14A46082128461A
:1031A000E36830F0B7FCECE7414628464EF09DF866
:1031B000A36830336B70E3683033EB70E1E700BF36
:1031C00034930120F66E00209C43002048EF03203A
:1031D000EC450508F9450508F24505084FF4963217
:1031E000F8B5354C354D04F5143393F80B3C02FB20
:1031F00003442FF0FDFC324BA0F5005004F20444D0
:1032000020F07E4018604FF440712046FFF71AFB13
:1032100001202A6892F8393503EB430359016050C5
:1032200092F8281504EB4313197192F8291503F14C
:103230004007996092F82A15D960D2F810151961E3
:1032400092F8C915596192F888119961B82192F8DC
:10325000460510FB01F000F27A26164403F11C012A
:1032600036F902CB41F804CBB942F9D100F523700D
:103270000244503332F9020B41F8040BB2F9060054
:103280009942C860F6D12FF0B3FCA0F5005021465A
:103290004FF4407240F09050FFF7C4FAB8212B6809
:1032A00093F8462501FB0233064AC3F8AC22BDE879
:1032B000F840FFF73DBF00BF349301209C4300203E
:1032C00048EF0320FE450508024B1B6883F83905CB
:1032D000FFF784BF9C43002000B5144B89B00093D6
:1032E000134B1B6893F88821029293F8C925019229
:1032F00093F8C82503F50053039293F8312993F806
:10330000303904920B4A05935168106806AB03C329
:103310002FF06EFCA0F580402022694640F09050CE
:10332000FFF780FA09B05DF804FB00BFD2EADDBA0E
:103330009C430020F512002070B53C4E202206F57B
:10334000143393F80B5C4FF496335D4305F2044558
:10335000AC19002120464DF046FF2FF049FC344BBC
:10336000A0F5804020F07E40186020212046FFF725
:1033700069FAAA592F4B9A4257D1A2682E4D042AB6
:1033800028BF04222B68002083F888216268183443
:10339000003A18BF012283F8C92554F80C2C003AD2
:1033A00018BF012283F8C82554F8042C03F50053F4
:1033B0000F2A28BF0F2283F8302954F8082C0F2A2F
:1033C00028BF0F2283F8312924F01EFA03CC1B4AB0
:1033D0001060516011780120213939298CBF0021FA
:1033E000012121B93F231370302353700DE0135C8A
:1033F0005BB1213BDBB2392B00F101008CBF002116
:1034000001210828EDD1392BECD82B6803F50053A6
:1034100093F8300922F020F92B68BDE8704003F5DD
:10342000005393F8310922F0FBB870BD34930120AA
:1034300048EF0320D2EADDBA9C430020F5120020B9
:10344000054B1B6883F83825022283F8360583F87C
:10345000371583F8262570479C4300200022034B34
:103460001B6883F8432583F8442570479C4300205C
:103470002DE9F0412B4F15463B68064693F83C2555
:103480000C4622B1002283F83C2522F0ADF83B68BF
:10349000042E93F88B31B046A8BF4FF00408012CDE
:1034A000B8BF0124032B34D1042CA8BF0424002D61
:1034B00036DD092D02DD022B18BF092502F090FB35
:1034C00002223B68032E83F8302283F8E82283F837
:1034D000A02383F858244FF48072A3F83C251A7B6C
:1034E000D8BF002622F00102C8BF01261A730022AD
:1034F00083F83B6583F8294583F82A5583F82885A6
:103500000948C3F8102530F04DFCBDE8F041FFF745
:103510001DB91BB1032CA8BF0324C8E70124C6E7CB
:103520000125CBE79C4300200A4605084FF496325C
:10353000F8B5364D364E05F5143393F80B3C02FBC7
:1035400003552FF055FB334BA0F5005005F2044511
:1035500020F07E4018604FF440712846FFF772F962
:10356000336893F8394504EB44046201AA5805EB2B
:103570004414012A48D12279274883F82825A268D3
:1035800083F82925E26883F82A25626983F8C9252A
:10359000A26983F8882130F005FC336893F82A2566
:1035A00093F8291593F92805FFF762FF316823691D
:1035B00091F84655C1F81035B82315FB03F303F213
:1035C0007A2004F11C02084404F1400652F8047BFE
:1035D000B24220F8027BF9D103F523730B44503437
:1035E00052F8040B23F8020BD068A242D880F7D11E
:1035F000B82303FB0511094BB1F994221B689A42C9
:10360000C4BF012381F86C32F8BD00BF34930120A0
:103610009C43002048EF032020460508040B0608C1
:103620000022044B1B6883F8390583F84325FFF714
:103630007DBF00BF9C43002010B5FFF70FFF0122A4
:10364000084C236883F8382593F8371593F9360525
:10365000FFF70EFF0022236883F82625BDE81040FF
:1036600022F03ABF9C4300202DE9F04F7A4B85B001
:1036700001A9186824F068FC002301A88DF80C301B
:1036800024F004FD754C764E2060356824F0F4FD7E
:10369000C5F8B801206824F097FDD6F800900546DB
:1036A000D9F87031D9F8B8B1C9F8BC01C9F81835E2
:1036B00010B96C4830F076FB58463468FFF792F842
:1036C0000022336884F82B0593F82B15C3F81425D2
:1036D00004290BD9A1F16803072B07D901F138039D
:1036E000DBB20E2B02D9604830F05CFB336893F8F4
:1036F0002B45C72C69D86E2C88BF012264B288BFC5
:10370000C3F81425632C0BF101070BF102080BF130
:10371000030A4CDD082D02D8524830F043FB3846EE
:10372000FFF760F844B24046FFF75CF807465046A2
:10373000FFF758F880460BF1090AAAEB0B03043394
:103740009D4202D2474830F02DFB00250AEB0500D0
:10375000D6F800B0FFF746F8B82200233168AB4432
:103760008BF83F0502FB05100135042DC0F8A0328F
:10377000ECD191F826350AF10405032B04D042461A
:1037800039462046FFF774FE00223368C9F8C0515D
:1037900083F8262583F83D25012283F8432500F090
:1037A0007BFC3368C3F80C0505B0BDE8F08F022D33
:1037B00002D82C4830F0F6FA3846FFF713F80746DF
:1037C0004046FFF70FF88046B7E7C83C0BF1070A01
:1037D0000E2C0ED8DFE804F0080808350D0D0D0D8D
:1037E0000D0D393939393C00082D02D21D4830F011
:1037F000D9FAAAEB0B0305339D4202D2194830F0E7
:10380000D1FA5046FEF7EEFF44B20AF10100FEF78E
:10381000E9FF07460AF10200FEF7E4FFAAEB0B03FB
:1038200045339D42804602D20E4830F0BBFA3368E1
:1038300093F82B35C82B14BF0AF1450A0AF2051A72
:103840007BE79BF802304D2BD3D10BF1080AD0E770
:103850000122C3F81425F8E7984300201010002037
:103860009C4300202C4605085146050837B5164DE7
:103870002B6893F83E35ABB140F6AC5400F00CFC2D
:103880002B68D3F87011D3F80C254C43821AB4FB83
:10389000F2F46420B4FBF0F300FB13440B480094F3
:1038A00030F080FA2B6893F8430558B1084B1A683A
:1038B00001321CBF4FF0FF321A60FFF7CFFDFDF75A
:1038C00069FD012003B030BD9C4300207B46050804
:1038D0001010002037B5254D254A2B680446D3F833
:1038E000C031684623F07E4305211360FEF7AAFF2E
:1038F0009DF80000802803D1FFF7B8FF03B030BD6A
:103900002B6893F843258AB1D3F81415D3F8C02156
:10391000002914BF052104211144D3E96E252A444E
:10392000914203D9134830F03DFAE5E79DF80120B4
:1039300020706270D3F814159DF802209DF80300E2
:1039400061B912026280E071002914BF05210421CF
:10395000D3F8C0210A44C3F8C021CFE702EB00220C
:1039600062809DF80420E271EEE700BF9C430020D6
:1039700048EF0320B8460508F8B513F05BFD0024B6
:10398000B8265D4D2B681A1992F83F2542B106FB07
:10399000043393F83032022B02D12046FFF700FAAD
:1039A0000134042CEED113F053FD02242B6893F85C
:1039B0002625511E8ABB93F8301509B1C3F8182586
:1039C00093F83C25900709D493F84325002A4CD15D
:1039D00093F8D125002A48D0002946D1D3F81825DC
:1039E0000132C3F818252A6892F8353592F8272550
:1039F0009A4208D0012B01D125F01AF92B6893F8CF
:103A0000272583F835252A6892F8273592F83C2532
:103A1000920755D5002B59D0F8BD0729CAD8DFE841
:103A200001F0040F1215181B1E2183F8304283F891
:103A3000E84283F8A04383F85844FEF787FEB5E7D1
:103A4000FFF7FAFDB2E7FFF771FDAFE7FFF7C6FB3F
:103A5000ACE7FFF709FEA9E7FFF706FAA6E7FEF7CE
:103A6000EFF8A3E7FFF74CFBA0E70026B827D3F851
:103A700070315A4202F0070203F0070358BF534265
:103A8000DB0003F164042B689A1992F83F259AB180
:103A900007FB06F204EB861103EB010C595802F206
:103AA00032229950DCF8041098182B68416093F882
:103AB00043350BB1FFF70EFF0136042EE3D192E739
:103AC000032BA9D8DFE803F0020C10141AF034FD20
:103AD00022F06EFAFCF792FFBDE8F84000F04CBA15
:103AE000BDE8F84026F07CB9BDE8F840FEF71EBB03
:103AF000BDE8F840FDF756BC9C43002008B5174AC6
:103B0000174B00211360184642F638124DF06BFB3C
:103B100043F23332012102654FF6FF72034680F80B
:103B20005A10A0F858204FF48030C3E917004FF620
:103B3000037083F8C815A3F8820103F65601042028
:103B4000C3F8581840F60F7183F88B0103F5005342
:103B5000A3F83019A3F8BC2808BD00BF9C4300207F
:103B6000A04300204360BDF90030018003810023A1
:103B7000438103734FF480334280C3627047B0F9CE
:103B80000A2000231F2A13D00A291CBF01324281B8
:103B9000B0F92C2008BF4381531C1BB2024483851B
:103BA0001173002203441A730423C3850120704754
:103BB000184670472DE9F14F054604466FF00B0992
:103BC0000F464FF05008B0F90260DFF8ACA035F9AD
:103BD0000C0BA9EB0409B4F92C2009EB05039A425C
:103BE00032DD15F8013B1AF8032002F00302022A25
:103BF00008BF203BDBB20A2B02D100200836EAE7DF
:103C0000092B06D190FBF8F308FB1303C01A5030C0
:103C1000E1E7202B14D0B4F908209A4210DC5F2B86
:103C20000ED89B1A626852F82320B2F900B0834480
:103C3000BBF5A07F08DC314620F0EAFB5846CAE716
:103C40000430B0F5A07FC6DB9FB1B4F908306268DC
:103C5000C3F15F0352F82330B3F900200244B2F5F8
:103C6000A07F06DC0022314601B0BDE8F04F23F012
:103C7000A1BA01B0BDE8F08F35D20708B0F92E30F7
:103C80000BB1013BC385704710B5049C03864463A8
:103C9000012480F838400024A34244860BDD029BB7
:103CA00001804360BDF90C30428003814FF48033C2
:103CB00044810473C36210BD438E70B501331BB2DF
:103CC00043860446B0F930001646834208BF0023FD
:103CD0004FF0300208BF6386B4F9323002FB034371
:103CE000002290429A855A811A73D5BF012204237B
:103CF000DA85E38519B14D1E15F8011F21B9013E82
:103D000016F8011F49B970BDB4F9320000EB40004C
:103D100004EB0010FFF733FFEEE7B4F9320000EBDD
:103D2000400004EB0010FFF72AFFE9E770B5436B92
:103D300004461B7883B970BDB4F932000021401BE2
:103D400048BFC01806FB0040FFF734FF0135B4F947
:103D50003030AB42F0DCEEE700253026F7E710B557
:103D6000024600210424B2F930308B4204DC536B4C
:103D70001B7882F8383010BD92F838301BB1536B85
:103D80001B7803B9C485FFF779FF01313030EAE7CA
:103D90002DE9FF41002301223F21042026F062FB90
:103DA0002124124DDFF8488028602246414601A8B0
:103DB0002FF09CFE01A824F069F9012200212F6850
:103DC00024F022F80134A600883E602CB851ECD1D2
:103DD0002C6801230022FC21204623F04DFF28609F
:103DE000204626F08FFA04B0BDE8F081D86C0020A0
:103DF000684805087FB52D4D0023286890F8B72541
:103E00000AB180F8B73500222124294E80F8B53553
:103E100080F8B63500F2B55302933368114600932B
:103E200000F5AF6001230194FFF72EFF3368286887
:103E30001A680021528800F5A960C2F1CF0212B2BF
:103E40000094FFF78FFE2B6893F8272592B993F81B
:103E50008B1193F82A25012901D9032915D193F84B
:103E60002935013B03EBC3031344124A013B52F8CB
:103E7000234000E0104C013C14F8011F286881B970
:103E8000012380F8B73504B070BD93F88C11531E30
:103E9000022901D1094AEAE703290CBF084A094A65
:103EA000E5E700F5A960FFF76AFEE5E79C4300201F
:103EB000D86C00205C530508731C0608EC540508F8
:103EC0006C540508EC53050810B5064C206800F545
:103ED000AF60FFF744FF2068BDE8104000F5A9601F
:103EE000FFF7CCBE9C43002030B5204D8FB0286832
:103EF000047B14F001040ED0002100F5A960FFF747
:103F000059FEFFF7E1FF286800F5AF600FB0BDE88C
:103F10003040FFF70BBF2121154B02A81B681A6820
:103F200052880091C2F1CF02214612B2FFF71AFE69
:103F30000A212B6805A8B3F88021B2FBF1F301FB3D
:103F4000132292B2202100920A4A2FF0E3FD0423AB
:103F500005A8ADF836304DF0D0F900B2ADF812003A
:103F6000ADF83400214602A8C9E700BF9C430020F9
:103F7000D86C00207248050838B5154D286890F8AF
:103F8000B43590F8474533B1013BDBB280F8B43526
:103F90000BB980F8B53590F8C83513B990F8B63537
:103FA000A3B1B82303FB0404D4F8AC2272B10021FE
:103FB00000F5AF60FFF780FE00224FF4C6712B685A
:103FC000C4F8AC22A3F8B41583F8B62538BD00BFF9
:103FD0009C4300200020704770B502FB011502FBD6
:103FE0000555A2F5807202FB01F46243A1EB224465
:103FF0007F2C0646A1EB254502D907482FF0D2FEBB
:104000007F2D02D905482FF0CDFE054800EBC600F4
:104010004571847170BD00BF6C5505088355050856
:104020007892012038B50C46072C114605461A46F1
:104030000ED82046FFF7D0FF4FF6FF72064B23F84D
:104040003420002203EBC4035A801D71204638BD82
:104050004FF0FF34FAE700BF7892012001482FF0BB
:10406000A1BE00BF9955050808B5C0B202F08AF894
:1040700001F098FFBDE8084001F0CABF70477047E3
:10408000C00002F011B80000024B586A0A23B0FBCE
:10409000F3F0704700800450094B0A4A586A0A231B
:1040A0001268B0FBF3F3D2F8B80510B9C2F8B8350E
:1040B0007047181A46F69B73B0FBF3F0704700BFC9
:1040C000008004509C430020044B1B7813B1044B28
:1040D0001B780BB9FFF7C2BF704700BFE529050881
:1040E000E6290508002307B50DF107008DF8073014
:1040F0002EF0EAFF9DF8070003B05DF804FB000016
:10410000F0B585B0FFF7EEFF10F0200F00F00404CB
:1041100000F0020500F0100100F0080243B251D097
:10412000002C0CBF00244FF400640DB144F48064F3
:1041300009B144F480540AB144F02004002B02DA9F
:1041400044F0040404E010F09E0F01D144F0020496
:10415000C60748BF44F0400445064FF00005224F13
:1041600000F0180048BF44F080043E88182808BFBB
:1041700044F4005466408DF8005046FA05F3D80721
:1041800007D544FA05F3D90703D568460195FDF72D
:10419000D9F80135102DF0D1012300258DF800301C
:1041A00046FA05F3DA0707D544FA05F3DB0703D42B
:1041B00068460195FDF7C6F80135102DF0D13C8019
:1041C00005B0F0BD002C0CBF00244FF400740DB1FD
:1041D00044F4807409B144F008040AB144F01004B6
:1041E000002BB5DAACE700BFDC6C00204FF4963151
:1041F000094B012003F5143292F80B2C01FB02331A
:10420000064A03F20443126802F50052C2F8D83895
:10421000034A1360704700BF349301209C43002081
:10422000C080002070B5284B28491B6893F8C00552
:1042300093F88841C3F8BC15254B1B685A6A4FF4A4
:1042400040735843131802F5407244B30E461044AD
:10425000204A02EB04241A780333A25CD50813F831
:10426000022CA25C9208520142EAC52213F8015CBA
:104270008342655D42EAD50252BA26F8022BEAD1A2
:10428000154C216004F5143494F80B0C2EF0A4F9AD
:1042900094F80B3CC3F1010384F80B3C70BD0D4650
:1042A00010441A780333D40813F8022C92085201F0
:1042B00042EAC42213F8014C984242EAD40252BAAC
:1042C00025F8022BEDD1DBE79C430020DE6C0020BB
:1042D000608300201C6F070834930120024B1B6889
:1042E00083F8C005704700BF9C4300204FF0004397
:1042F000C36003606FF00043C0E901337047836817
:104300008B4205DD81604368934206DD4260704761
:10431000C3688B42B8BFC160F5E703689342B8BF7A
:10432000026070470B4B1A6892F8461502F50B7342
:10433000B82201FB02335A6F82F002025A679207D9
:1043400049BF054A054A12681A8548BF044AC3F89E
:10435000802070479C430020F00A060873B00508CF
:104360005CB00508B82230B5264B196891F84605AF
:1043700001F50B7300FB023393F840206AB903F197
:10438000680203F17004B2F90000400022F8020B49
:104390009442F8D1012283F840201B4A012412687C
:1043A00003F14E005A85194A12689A850022551F5A
:1043B000012D1ED891F88B510DBB0132092AF6D17F
:1043C000002203F16000022A02D191F88B410CB166
:1043D000048904800132042A00F10200F3D140F282
:1043E00001125A874FF00132DA63094AC3F880207C
:1043F00030BD082A03D191F88B51022DDDD120F870
:104400001240DAE79C430020F40A0608F80A06087E
:104410008BB00508B82230B5234B196891F84605D2
:1044200001F50B7300FB023393F840206AB903F1E6
:10443000680203F17004B2F90000400022F8020B98
:104440009442F8D1012283F84020184A01241268CE
:1044500003F14E005A85164A12689A850022551FAC
:10446000012D18D891F88B51DDB90132092AF6D106
:10447000002203F16000022A02D191F88B410CB1B5
:10448000048904800132042A00F10200F3D1094AB0
:10449000C3F8802030BD082A03D191F88B51022D3A
:1044A000E3D120F81240E0E79C430020F40A06081C
:1044B000F80A0608A1B005080A4B1A6892F84615D2
:1044C00002F50B73B82201FB02335A6F064982F0E2
:1044D000010212F0010F5A67044A08BF0A46C3F8E6
:1044E000802070479C430020CAB00508B6B005087C
:1044F000104B1A6892F8461502F50B73B82201FBAF
:1045000002335A6F82F008025A67120710D50A4A1E
:1045100012681A850122A3F85620B3F86E20A3F87A
:1045200066200422A3F84C20044AC3F88020704778
:10453000034AFAE79C430020F00A0608DFB00508AA
:10454000F0B005080B4B1A6892F8893192F84615BD
:10455000002B0CBF0123002382F8893102F50B7375
:104560004FF0B80201FB02330CBF034A034AC3F801
:10457000802070479C43002002B1050811B1050856
:10458000FEF74CBC054B05211B6893F8460503F567
:104590000B72B82300FB032010F026BB9C430020C5
:1045A000054B02211B6893F8460503F50B72B823EF
:1045B00000FB032010F018BB9C430020054B012199
:1045C0001B6893F8460503F50B72B82300FB032024
:1045D00010F00ABB9C430020054B00211B6893F898
:1045E000460503F50B72B82300FB032010F0FCBA5C
:1045F0009C430020054B04211B6893F8460503F5F6
:104600000B72B82300FB032010F0EEBA9C4300208D
:1046100038B5B8240C4D00212B6803F50B7093F8C6
:10462000463503FB04000123A0F85C300723A0F803
:104630004C3010F0D9FA2B6893F8462502FB04336E
:10464000024AC3F8AC2238BD9C43002021B10508C2
:1046500010B50378E3B90F4A11684268D1F8C44530
:1046600002F00F0242EA0412C1F8C4250A490846C2
:10467000CC68A24207D1142202FB03031B6903B1D9
:104680009847012005E001330D2B01F11401EFD112
:10469000002010BD9C430020BCB10508024A1378DD
:1046A000C3F1010313707047E66E002007B5084898
:1046B00023F0ECFC062204210346CDE900215E2014
:1046C0000022022123F078F803B05DF804FB00BF5C
:1046D000DBB2050807B5084823F0D8FC0622042100
:1046E0000346CDE9002136200022262123F064F87C
:1046F00003B05DF804FB00BFE2B2050837B50D4812
:1047000023F0C4FC06240425034600220E21602069
:10471000CDE9004523F050F8074823F0B7FC00220C
:10472000034626213620CDE9004523F045F803B0A5
:1047300030BD00BFEBB20508F2B2050801382DF01C
:10474000B5B9000070B50021012504460D4E33684F
:1047500083F88711C3F82C1583F83015A3F8461594
:1047600083F83F55A3F8401583F842152DF03CFA25
:1047700033682A4693F8CD1560B22944BDE87040ED
:10478000FEF75EBE9C43002070B51F4C22686AB1E4
:104790000023194602EB4116B67B4D01360702D5C0
:1047A000984204D0013301310429F3D170BD174878
:1047B0002FF0F8FA2168164A29444B7B0431C3F3E1
:1047C00002101070134AC3F38103126882F8CD35CA
:1047D0008B7A114AC3F380001070104AC3F30103AF
:1047E000137091F909300120002BB4BF0422032279
:1047F0000B4B1A708A880B4BBDE870401A80CA8830
:10480000094B1A802DF008BA24930120FAB205084A
:10481000E76E00209C430020E66E0020161000206A
:10482000F26E002018100020141000207FB53E48C2
:1048300023F02CFC06240425034600220F215820D7
:10484000CDE9004522F0B8FF384B1878384B00EB23
:10485000C000184423F01AFC002203464521AA2078
:10486000CDE9004522F0A8FF324B1878324B00EB1F
:10487000C000184423F00AFC002203465521D8202A
:10488000CDE9004522F098FF2C4B1A88EAB92C4854
:10489000039223F0FBFB65210346CDE90045C420CC
:1048A000039A22F089FF274E3488B4B9244823F0B4
:1048B000EDFB0622034604207521CDE900202246A7
:1048C000C42022F079FF04B070BD4FF0FF3368219F
:1048D00040F2191022F0BCFEE5E73C25B4FBF5F2EE
:1048E00005FB12420223782192B240F2191022F005
:1048F000AFFE441F144823F0C9FB062204210346DF
:10490000CDE9002120460022782122F055FF32888F
:104910004FF0FF33B2FBF5F27821204604B0BDE83A
:10492000704022F095BE00BF15B305081610002098
:104930002CBB0508E66E002047BB050814100020BC
:104940001DB305081810002025B30508B8200C4B2E
:104950001B6893F8C81593F84625C1F10101C9B247
:1049600000FB023283F8C81539B90649C2F8AC1207
:10497000012283F8B625FEF7AFBC0349F6E700BF76
:104980009C4300202DB305083AB30508B8200A4B14
:104990001B6893F8C92593F84615C2F10102D2B2FB
:1049A00083F8C92500FB013322B9044AC3F8AC22BD
:1049B000FEF792BC024AF9E79C43002046B3050883
:1049C00056B3050810B5114C60B1012815D0FEF79B
:1049D00083FC2368BDE8104003F5005393F83009C9
:1049E00020F03ABE236803F5005393F83029002ADB
:1049F000EDD0013A83F83029E9E7236803F5005345
:104A000093F830290E2AE2D80132F3E79C430020C4
:104A100010B5114C60B1012815D0FEF75DFC23687C
:104A2000BDE8104003F5005393F8310920F0F8BDBC
:104A3000236803F5005393F83129002AEDD0013A99
:104A400083F83129E9E7236803F5005393F8312906
:104A50000E2AE2D80132F3E79C43002008B540B1AA
:104A6000012810D0002022F0CFFEBDE80840FEF75C
:104A700033BC094B1A6892F88831002BF2D0013B05
:104A800082F88831EEE7044B1A6892F88831032BDC
:104A9000E8D80133F4E700BF9C43002028B9064A58
:104AA000137843B1013B13707047012803D1024BC7
:104AB0001A7802B9187070471610002020B9054AFC
:104AC0001388013B138070470128FCD1014A1388E9
:104AD0000133F7E71410002020B9054A1388013B81
:104AE000138070470128FCD1014A13880133F7E78E
:104AF00018100020054B1B68834205D1044B1B781E
:104B000013B90420FFF71EBE704700BF74470508A5
:104B1000F26E0020014B1888704700BF181000206B
:104B2000014B1888704700BF1410002070B5234A4D
:104B3000234B127886B0023A56425641214A1C68ED
:104B4000128894F8CD15ADF80A201F4A1F4B127831
:104B50001D7812011E4B890001F00C0102F0700259
:104B60001B780A4342EAC6128DF80D209B009DF87F
:104B70000E2005F0030503F004032B4322F0070287
:104B800013438DF80E30134B134A1B8894F88B4156
:104B9000ADF80830136804F00304CDF80F30536803
:104BA000019044F00404002001A98DF80C40CDF8D8
:104BB00013302DF031F806B070BD00BFF26E00204A
:104BC0009C43002014100020E76E002016100020E7
:104BD000E66E002018100020F5120020F8B5144BE6
:104BE0000446B3F90000CD1D23F046FB29460246DA
:104BF000A4F108001FF00CFC0E4F04F16006B7F999
:104C0000000023F039FB29460246204608341FF0F5
:104C1000FFFBB442F3D1084BB3F9000023F02CFBA7
:104C2000294602462046BDE8F8401FF0F1BB00BF10
:104C3000E46E0020F06E0020F46E0020054B1B682F
:104C400093F8D1252AB9012283F8D125024B034AD2
:104C50001A6070479C430020E06E0020D4B705081E
:104C60000022054B1B6883F8D32583F8D12583F8F0
:104C7000CE252DF0A1BB00BF9C430020002208B52B
:104C80001A491B4B09781B68B1FA81F1C3E95B2211
:104C9000C3F864210122490983F82D15154983F8C9
:104CA0003025097883F82F1513490978481E90425A
:104CB0008CBF00200120042983F8870102D002392B
:104CC0004A424A4183F82C25012293F8CD150B4B1B
:104CD000114493F90000FEF7B3FB2CF075FF2CF0A4
:104CE00011FEBDE80840FFF7BBBF00BF1610002053
:104CF0009C430020E66E0020F26E0020E76E00204C
:104D000008B52CF071FFBDE80840FFF7A9BF08B552
:104D10000021FEF785FCBDE80840FFF7A1BF0000B9
:104D200008B5074B07491B6883F8CC05C0B201EBF7
:104D3000C001FEF7C9FABDE80840FFF791BF00BF08
:104D40009C430020F66E002008B5094B1B68834287
:104D50000CD1084B1B6893F844350BB1FEF786FD68
:104D6000FFF77EFFBDE80840FCF79CBB08BD00BF15
:104D7000744705089C4300200022034B1860034B36
:104D80001B6883F8CE257047E06E00209C4300200E
:104D900010B50A4C236893F88B11022906D10848F4
:104DA000FFF7EAFF236883F8CE1510BD012994BFF1
:104DB00004480548BDE81040FFF7DEBF9C430020D3
:104DC000B4B80508D4B50508BCB505080022024BE7
:104DD0001A70FFF7DDBF00BFF26E00200222024B07
:104DE0001A70FFF7D5BF00BFF26E00200122024B00
:104DF0001A70FFF7CDBF00BFF26E00200148FFF729
:104E0000BBBF00BF5CB605080148FFF7B5BF00BFD8
:104E10001CB905080749084B0A681A604A685A60B5
:104E200000221A721A780AB941221A700348FFF751
:104E3000A3BF00BFF51200201A10002094B505088A
:104E400008B5FFF721F94CF0D7F9BDE80840014853
:104E5000FFF792BF2CB8050808B52CF0C5FE00225C
:104E6000084B1B68C3E95B22C3F86421FCF71AFBFB
:104E70002DF0AEFA2CF08EFEBDE808400248FFF798
:104E80007BBF00BF9C4300203CBA050838B50546EF
:104E90001D4C20464CF031FA2DB9012802D92318B7
:104EA00003F8015C38BD012D07D10828FAD0412351
:104EB0002354002320444370F4E7032D0AD1002833
:104EC000F0D00138235C0133DBB25A2B88BF212399
:104ED0002354E7E7022D09D10028E3D00138235CF1
:104EE000013BDBB2202B98BF5A23F1E7042DD9D127
:104EF0002368064A136063685360FEF7EDF9BDE866
:104F000038400348FFF738BF1A100020F512002080
:104F10001CB905080148FFF72FBF00BFD4BA050828
:104F200073B50478002C40F0378143685A1C75D063
:104F30009A4D2A6892F8CA0548B392F8D215012909
:104F400011D1202B0FD06E2B0DD0792B0BD0944983
:104F50000968994207D093490968994203D0924958
:104F6000096899425AD192F8CB1582F8D1150021DF
:104F700082F8CA158D4A12680AB118469047002077
:104F800018212B6883F8D10520F072FE45E092F8D5
:104F9000D14544B9824A12689A423FD1FFF74EFE8A
:104FA00017210020F0E782490968994239D1814CE4
:104FB00092F8CE3526681901726802EB0313DB689C
:104FC00083B1535E032B0DD1162120F051FE022038
:104FD00023682A685B6892F8CE2503EB0213DB682E
:104FE00098471AE022682968B2F9002091F8CE3576
:104FF000013A9342AEBF00230133DBB281F8CE35D4
:105000000020132120F034FE2B68226893F8CE355F
:1050100052681B01D35E0133E4D00124204602B064
:1050200070BD65490968994231D1624C92F8CE351C
:1050300026681901726802EB0313DB687BB1565EC8
:10504000032E0CD1162120F013FE23682A685B681A
:1050500092F8CE25304603EB0213DB68C0E72A68DE
:1050600092F8CE350BB923681B88013BDBB282F87E
:10507000CE351321002020F0FBFD2B68226893F829
:10508000CE3552681B01D35E0133E8D0C5E74B49EA
:10509000096899421BD1474C92F8CE352668190110
:1050A000726802EB0313DB68002BB6D0535E012B52
:1050B000B3DD1621019020F0DBFD23682A685B68D0
:1050C00092F8CE25019803EB0213DB6888E73C4990
:1050D000096899421BD1374C92F8CE3520681901E6
:1050E000426802EB0313DB68002B96D0535E012B62
:1050F00093DD0020162120F0BBFD23682A685B6841
:1051000092F8CE25012003EB0213DB6868E72D49F6
:105110000968994227D1274C92F8CE3520681901A9
:10512000426802EB0313DB68002B3FF476AF525E5C
:10513000002A3FF472AF022A03D1012098471621BA
:105140002FE7032A01D10420F8E70121002020F0F5
:105150008FFD2A68236892F8CE155B68084603EB3A
:105160000113DB683CE7184A12689A4203D1FFF743
:1051700077FD182115E7154A12689A420CD10D4B9C
:105180001B6818690028F2D0B3F91410FFF7F4FD7A
:105190002B6883F8CE15ECE700243FE79C43002002
:1051A000784705087C47050874470508E86E002025
:1051B000A0470508E06E0020B4470508AC47050885
:1051C000B0470508A4470508A8470508BC470508D7
:1051D000094B1A6892F8CF35013BDBB282F8CF3524
:1051E00043B992F8D03583F0010382F8D035082313
:1051F00082F8CF35704700BF9C43002030B5094B83
:10520000094D1B68286093F8D145084883F8CB45C1
:10521000012483F8D22583F8CA4583F8D14501607B
:1052200030BD00BF9C430020EC6E0020E86E0020E3
:1052300010B50F4C236893F88B2142B978B1114611
:105240000C48FFF7DBFF236883F8CE2510BD012A49
:1052500005D1022803DD08482EF0A4FD00202368B4
:1052600083F8CD050548FFF787FD02222368EBE7A9
:105270009C4300206AB30508C6B30508B4B8050806
:10528000042838B504460AD1012218491848FFF706
:10529000B5FF0022174B1B6883F8CE2538BD164B8F
:1052A0001B782BB9FFF74EFABDE83840FFF7D8BCA2
:1052B000013B012BF2D800202CF0F8FB01202CF050
:1052C000F5FB02202CF0F2FB4BF0C4FF05460B4B24
:1052D0001C70FFF72BFC28462CF02EFC0848FFF72B
:1052E0004BFD044B01221B68D6E700BFF54A0008BE
:1052F000F4B305089C430020F26E0020E76E002006
:105300000CB70508094B1B6893F83D2532B993F893
:1053100043251AB911460648FFF770BF93F82735A1
:1053200013B90448FFF728BD704700BF9C43002015
:1053300041B40508A4B90508012202490248FFF753
:105340005DBF00BF494D000875B40508C82A2DE9A6
:10535000F04F1646A8BFC826172AC8BFC82585B073
:10536000044629480F46CCBF95FBF6F50825029365
:1053700022F08CFE8146254822F088FE4FF0060B75
:105380004FF0040A0346002220463946CDE900BA10
:10539000083422F011FA4FF000082046B04526DB11
:1053A00026EAE67605FB0646C5F1080318481E44C2
:1053B0004FF0060822F06AFE4FF004093946034612
:1053C00000223046CDE9008922F0F6F9029B11480F
:1053D00003FB054422F05AFE0022034639462046CC
:1053E000CDE9008922F0E8F905B0BDE8F08F4B4621
:1053F00000223946CDE900BA039022F0DDF9039886
:1054000008F101082844C9E7AEB40508B7B4050897
:10541000C0B40508C9B40508F7B51D4822F036FE2A
:10542000062504261B4C034600220F216C20CDE9E3
:10543000005622F0C1F92368174F93F8C80500EB16
:10544000C000384422F022FE002203465521B42039
:10545000CDE9005622F0B0F9236893F8C90500EBB6
:10546000C000384422F012FE002203466521CE20FF
:10547000CDE9005622F0A0F905227721DA20236831
:1054800093F8883103B0BDE8F040FFF75FBF00BF7D
:10549000D2B405089C43002047BB050813B5124849
:1054A00022F0F4FD062204210346CDE900213C2030
:1054B0000022262122F080F950210C4C0846236856
:1054C000102203F5005393F83039FFF73FFF102205
:1054D00070215020236803F5005393F8313902B04E
:1054E000BDE81040FFF732BFDBB405089C43002045
:1054F00070B504464BF001FF2246211800200C4BEA
:105500000C4E1D68914200D170BD12F8013BF45C55
:1055100004F00304022C08BF203B213B3E2B8EBF2E
:10552000042355F82330B3F900301844EAE700BFEC
:10553000D86C002035D20708074B1B681B68B3F9ED
:105540000210431E084613F8012F02B970470A2AB9
:1055500008BF4018F7E700BFD86C00202DE9F047DE
:1055600006460D4617460446DFF84890DFF84880A7
:1055700017F8013BE3B10A2B02D134460C35F7E7AB
:1055800013F8092002F00302022A08BF203B213B46
:105590003E2B01D90434EBE7D8F80020204652F81E
:1055A00023202946B2F900A01EF032FF5444DFE761
:1055B000BDE8F08735D20708D86C00202DE9F0430C
:1055C000594891B022F062FD062204210346CDE93C
:1055D0000021582000220F2122F0EEF838212A2045
:1055E000524AFFF7BBFF38217220514AFFF7B6FF3E
:1055F0000026504FDFF85C81DFF85C91002306AA9B
:1056000008A9F0B28DF8283043F6E0542CF0F0F9F8
:105610004FF4706303FB0644C8230546B4FBF3F460
:1056200000283DD021462A2008AAFFF797FF022D27
:1056300005D1414A12210BA82EF06CFA18E02CF08B
:1056400079F958BB9DF81D304A4604939DF81C30EB
:10565000122103939DF81B300BA802939DF81A307A
:1056600001939DF8193000939DF818302EF052FAEE
:10567000214672200BAA0136FFF770FF042EBDD120
:105680002CF058F90128044645D12BF0C1FF58B938
:105690002A4811B0BDE8F043FFF76EBB4246C9E7A8
:1056A0003A4621462A20E6E72BF0A6FF002837D00D
:1056B0000022234D2B6883F88721224A83F8304546
:1056C0001278B2FA82F2520983F82D251E4A127816
:1056D00083F82F251D4A1078042802D0821E5442D8
:1056E0005441012293F8CD1583F82C45184B1144F1
:1056F00093F90000FDF7A4FE2BF084FF2CF064FA70
:1057000000222B68C3E95B22C3F8642111B0BDE815
:10571000F043FFF7A5BA0122094B1B6883F8D32594
:1057200011B0BDE8F08300BFE2B40508C0B20508BF
:10573000C5B205081AB50508EBB405083CBA05085A
:105740009C43002016100020E66E0020F26E002020
:10575000E76E002013B50508F5B405082DE9F04FF4
:105760005F4891B022F092FC5E4E03460622042070
:105770003546CDE900200F21002258200BAC22F045
:105780001BF80FCD0FC42B687069236000242546D9
:10579000B16908AB03C3B28B08AF1A800BAE37F800
:1057A000023B38211C4404EBC40056F8042B2A3079
:1057B0000135FFF7D3FE052DF1D14B4E336853B9B8
:1057C0002BF026FF012840F08780484811B0BDE843
:1057D000F04FFFF7D1BAFEF757FC0024804627466A
:1057E0004225434BDFF810A1DFF810B131680A19E8
:1057F0000959A8EB0101994282BF917B6FF3C30164
:105800009173917B090753D500210DF1140C8DF88C
:105810001C1002F10F0002F11701624610F801EBB3
:1058200088420CF801EBF9D100214FF0F009ADF8F6
:105830001010C82109FB05F0B0FBF1F12A200391FB
:10584000FFF78CFE32687220224492F90D200399F2
:105850001AEA220238BF5A46FFF780FE32689F20BC
:105860002244527B0399C2F3010231328DF8102099
:1058700004AAFFF773FE3268CC202244127B0399FE
:10588000C2F3850230328DF8102004AAFFF766FEBD
:10589000326848462244527B0399C2F38102313276
:1058A0008DF8102004AAFFF759FE114B103501376F
:1058B0002034802C9AD1F023C8245D430D4E032F51
:1058C0003FF77EAFB5FBF4F132462A20FFF746FEE4
:1058D000013705F57065F2E711B0BDE8F08F00BF44
:1058E0002CB5050874B5050824930120F4B6050805
:1058F000404B4C0035B5050822B5050827B505080D
:10590000F7B54FF4FF54C82749F2E076094DB4FBD0
:10591000F7F16820019104F57064FFF75FF92A46FA
:1059200068200199FFF71AFEB44205F10805EED18F
:1059300003B0F0BDF66E002007B5094822F0A6FBC3
:10594000062204210346CDE9002148200022082137
:1059500021F032FF03B05DF804EBFFF7D1BF00BFC9
:105960003EB5050807B5094822F090FB0622042140
:105970000346CDE9002148200022082121F01CFF28
:1059800003B05DF804EBFFF7BBBF00BF46B50508E9
:1059900010B5164886B022F079FB06220421034692
:1059A000CDE90021582000220F2121F005FF6021C0
:1059B0007820FFF713F90E484BF09FFC04460922AC
:1059C0000B4903A84BF0B5FC44B1FEF75DFB0303A4
:1059D00041BF06ABE418002304F80D3C6021782099
:1059E00003AAFFF7BBFD06B010BD00BF4EB505080A
:1059F0001A1000202DE9F04F0026494F85B03B6872
:105A000093F8CA2583F8D365002A3FD0454C324627
:105A10000121206824F040FD05462068FFF78CFD39
:105A2000AA4600EBD0746410DFF80491C4F150046E
:105A30009AF8003023B353461F4613F8018BB8F190
:105A4000000F02D0B8F10A0FF6D150463E70FFF7B2
:105A50004FFD00EBD0735B102146C3F1A00052460E
:105A6000FFF77CFDD9F800301B68B3F9023087F8E6
:105A700000801C44B8F1000F00D00137BA46D7E7C8
:105A8000284605B0BDE8F04F24F03CBC93F8D13572
:105A90007BB3254E33689B6803B1984700244FF0D1
:105AA00004094FF0060A3368B3F90C50B3F90EB08D
:105AB000B3F90080444532681EDB3B68B2F90E1032
:105AC00093F8CE05053901EB001193F8D005174B7B
:105AD00000EBC0001844039122F0D8FA06220421FA
